{
	"contracts/UniswapV3Pool.sol": {
		"UniswapV3Pool": {
			"abi": [
				{
					"inputs": [
						{
							"internalType": "address",
							"name": "token0_",
							"type": "address"
						},
						{
							"internalType": "address",
							"name": "token1_",
							"type": "address"
						},
						{
							"internalType": "uint160",
							"name": "sqrtPriceX96",
							"type": "uint160"
						},
						{
							"internalType": "int24",
							"name": "tick",
							"type": "int24"
						}
					],
					"stateMutability": "nonpayable",
					"type": "constructor"
				},
				{
					"inputs": [],
					"name": "InsufficientInputAmount",
					"type": "error"
				},
				{
					"inputs": [],
					"name": "InvalidTickRange",
					"type": "error"
				},
				{
					"inputs": [],
					"name": "ZeroLiquidity",
					"type": "error"
				},
				{
					"anonymous": false,
					"inputs": [
						{
							"indexed": false,
							"internalType": "address",
							"name": "sender",
							"type": "address"
						},
						{
							"indexed": true,
							"internalType": "address",
							"name": "owner",
							"type": "address"
						},
						{
							"indexed": true,
							"internalType": "int24",
							"name": "tickLower",
							"type": "int24"
						},
						{
							"indexed": true,
							"internalType": "int24",
							"name": "tickUpper",
							"type": "int24"
						},
						{
							"indexed": false,
							"internalType": "uint128",
							"name": "amount",
							"type": "uint128"
						},
						{
							"indexed": false,
							"internalType": "uint256",
							"name": "amount0",
							"type": "uint256"
						},
						{
							"indexed": false,
							"internalType": "uint256",
							"name": "amount1",
							"type": "uint256"
						}
					],
					"name": "Mint",
					"type": "event"
				},
				{
					"anonymous": false,
					"inputs": [
						{
							"indexed": true,
							"internalType": "address",
							"name": "sender",
							"type": "address"
						},
						{
							"indexed": true,
							"internalType": "address",
							"name": "recipient",
							"type": "address"
						},
						{
							"indexed": false,
							"internalType": "int256",
							"name": "amount0",
							"type": "int256"
						},
						{
							"indexed": false,
							"internalType": "int256",
							"name": "amount1",
							"type": "int256"
						},
						{
							"indexed": false,
							"internalType": "uint160",
							"name": "sqrtPriceX96",
							"type": "uint160"
						},
						{
							"indexed": false,
							"internalType": "uint128",
							"name": "liquidity",
							"type": "uint128"
						},
						{
							"indexed": false,
							"internalType": "int24",
							"name": "tick",
							"type": "int24"
						}
					],
					"name": "Swap",
					"type": "event"
				},
				{
					"inputs": [],
					"name": "liquidity",
					"outputs": [
						{
							"internalType": "uint128",
							"name": "",
							"type": "uint128"
						}
					],
					"stateMutability": "view",
					"type": "function"
				},
				{
					"inputs": [
						{
							"internalType": "address",
							"name": "owner",
							"type": "address"
						},
						{
							"internalType": "int24",
							"name": "lowerTick",
							"type": "int24"
						},
						{
							"internalType": "int24",
							"name": "upperTick",
							"type": "int24"
						},
						{
							"internalType": "uint128",
							"name": "amount",
							"type": "uint128"
						},
						{
							"internalType": "bytes",
							"name": "data",
							"type": "bytes"
						}
					],
					"name": "mint",
					"outputs": [
						{
							"internalType": "uint256",
							"name": "amount0",
							"type": "uint256"
						},
						{
							"internalType": "uint256",
							"name": "amount1",
							"type": "uint256"
						}
					],
					"stateMutability": "nonpayable",
					"type": "function"
				},
				{
					"inputs": [
						{
							"internalType": "bytes32",
							"name": "",
							"type": "bytes32"
						}
					],
					"name": "positions",
					"outputs": [
						{
							"internalType": "uint128",
							"name": "liquidity",
							"type": "uint128"
						}
					],
					"stateMutability": "view",
					"type": "function"
				},
				{
					"inputs": [],
					"name": "slot0",
					"outputs": [
						{
							"internalType": "uint160",
							"name": "sqrtPriceX96",
							"type": "uint160"
						},
						{
							"internalType": "int24",
							"name": "tick",
							"type": "int24"
						}
					],
					"stateMutability": "view",
					"type": "function"
				},
				{
					"inputs": [
						{
							"internalType": "int24",
							"name": "",
							"type": "int24"
						}
					],
					"name": "ticks",
					"outputs": [
						{
							"internalType": "bool",
							"name": "initialized",
							"type": "bool"
						},
						{
							"internalType": "uint128",
							"name": "liquidity",
							"type": "uint128"
						}
					],
					"stateMutability": "view",
					"type": "function"
				},
				{
					"inputs": [],
					"name": "token0",
					"outputs": [
						{
							"internalType": "address",
							"name": "",
							"type": "address"
						}
					],
					"stateMutability": "view",
					"type": "function"
				},
				{
					"inputs": [],
					"name": "token1",
					"outputs": [
						{
							"internalType": "address",
							"name": "",
							"type": "address"
						}
					],
					"stateMutability": "view",
					"type": "function"
				}
			],
			"devdoc": {
				"kind": "dev",
				"methods": {},
				"version": 1
			},
			"evm": {
				"assembly": "    /* \"contracts/UniswapV3Pool.sol\":287:3579  contract UniswapV3Pool {... */\n  mstore(0x40, 0xc0)\n    /* \"contracts/UniswapV3Pool.sol\":1759:2012  constructor(... */\n  callvalue\n  dup1\n  iszero\n  tag_1\n  jumpi\n  0x00\n  dup1\n  revert\ntag_1:\n  pop\n  mload(0x40)\n  sub(codesize, bytecodeSize)\n  dup1\n  bytecodeSize\n  dup4\n  codecopy\n  dup2\n  dup2\n  add\n  0x40\n  mstore\n  dup2\n  add\n  swap1\n  tag_2\n  swap2\n  swap1\n  tag_3\n  jump\t// in\ntag_2:\n    /* \"contracts/UniswapV3Pool.sol\":1902:1909  token0_ */\n  dup4\n    /* \"contracts/UniswapV3Pool.sol\":1893:1909  token0 = token0_ */\n  0xffffffffffffffffffffffffffffffffffffffff\n  and\n  0x80\n  dup2\n  0xffffffffffffffffffffffffffffffffffffffff\n  and\n  dup2\n  mstore\n  pop\n  pop\n    /* \"contracts/UniswapV3Pool.sol\":1929:1936  token1_ */\n  dup3\n    /* \"contracts/UniswapV3Pool.sol\":1920:1936  token1 = token1_ */\n  0xffffffffffffffffffffffffffffffffffffffff\n  and\n  0xa0\n  dup2\n  0xffffffffffffffffffffffffffffffffffffffff\n  and\n  dup2\n  mstore\n  pop\n  pop\n    /* \"contracts/UniswapV3Pool.sol\":1957:2004  Slot0({sqrtPriceX96: sqrtPriceX96, tick: tick}) */\n  mload(0x40)\n  dup1\n  0x40\n  add\n  0x40\n  mstore\n  dup1\n    /* \"contracts/UniswapV3Pool.sol\":1978:1990  sqrtPriceX96 */\n  dup4\n    /* \"contracts/UniswapV3Pool.sol\":1957:2004  Slot0({sqrtPriceX96: sqrtPriceX96, tick: tick}) */\n  0xffffffffffffffffffffffffffffffffffffffff\n  and\n  dup2\n  mstore\n  0x20\n  add\n    /* \"contracts/UniswapV3Pool.sol\":1998:2002  tick */\n  dup3\n    /* \"contracts/UniswapV3Pool.sol\":1957:2004  Slot0({sqrtPriceX96: sqrtPriceX96, tick: tick}) */\n  0x02\n  signextend\n  dup2\n  mstore\n  pop\n    /* \"contracts/UniswapV3Pool.sol\":1949:1954  slot0 */\n  0x00\n    /* \"contracts/UniswapV3Pool.sol\":1949:2004  slot0 = Slot0({sqrtPriceX96: sqrtPriceX96, tick: tick}) */\n  dup1\n  dup3\n  add\n  mload\n  dup2\n  0x00\n  add\n  exp(0x0100, 0x00)\n  dup2\n  sload\n  dup2\n  0xffffffffffffffffffffffffffffffffffffffff\n  mul\n  not\n  and\n  swap1\n  dup4\n  0xffffffffffffffffffffffffffffffffffffffff\n  and\n  mul\n  or\n  swap1\n  sstore\n  pop\n  0x20\n  dup3\n  add\n  mload\n  dup2\n  0x00\n  add\n  exp(0x0100, 0x14)\n  dup2\n  sload\n  dup2\n  0xffffff\n  mul\n  not\n  and\n  swap1\n  dup4\n  0x02\n  signextend\n  0xffffff\n  and\n  mul\n  or\n  swap1\n  sstore\n  pop\n  swap1\n  pop\n  pop\n    /* \"contracts/UniswapV3Pool.sol\":1759:2012  constructor(... */\n  pop\n  pop\n  pop\n  pop\n    /* \"contracts/UniswapV3Pool.sol\":287:3579  contract UniswapV3Pool {... */\n  jump(tag_6)\n    /* \"#utility.yul\":88:205   */\ntag_8:\n    /* \"#utility.yul\":197:198   */\n  0x00\n    /* \"#utility.yul\":194:195   */\n  dup1\n    /* \"#utility.yul\":187:199   */\n  revert\n    /* \"#utility.yul\":334:460   */\ntag_10:\n    /* \"#utility.yul\":371:378   */\n  0x00\n    /* \"#utility.yul\":411:453   */\n  0xffffffffffffffffffffffffffffffffffffffff\n    /* \"#utility.yul\":404:409   */\n  dup3\n    /* \"#utility.yul\":400:454   */\n  and\n    /* \"#utility.yul\":389:454   */\n  swap1\n  pop\n    /* \"#utility.yul\":334:460   */\n  swap2\n  swap1\n  pop\n  jump\t// out\n    /* \"#utility.yul\":466:562   */\ntag_11:\n    /* \"#utility.yul\":503:510   */\n  0x00\n    /* \"#utility.yul\":532:556   */\n  tag_25\n    /* \"#utility.yul\":550:555   */\n  dup3\n    /* \"#utility.yul\":532:556   */\n  tag_10\n  jump\t// in\ntag_25:\n    /* \"#utility.yul\":521:556   */\n  swap1\n  pop\n    /* \"#utility.yul\":466:562   */\n  swap2\n  swap1\n  pop\n  jump\t// out\n    /* \"#utility.yul\":568:690   */\ntag_12:\n    /* \"#utility.yul\":641:665   */\n  tag_27\n    /* \"#utility.yul\":659:664   */\n  dup2\n    /* \"#utility.yul\":641:665   */\n  tag_11\n  jump\t// in\ntag_27:\n    /* \"#utility.yul\":634:639   */\n  dup2\n    /* \"#utility.yul\":631:666   */\n  eq\n    /* \"#utility.yul\":621:684   */\n  tag_28\n  jumpi\n    /* \"#utility.yul\":680:681   */\n  0x00\n    /* \"#utility.yul\":677:678   */\n  dup1\n    /* \"#utility.yul\":670:682   */\n  revert\n    /* \"#utility.yul\":621:684   */\ntag_28:\n    /* \"#utility.yul\":568:690   */\n  pop\n  jump\t// out\n    /* \"#utility.yul\":696:839   */\ntag_13:\n    /* \"#utility.yul\":753:758   */\n  0x00\n    /* \"#utility.yul\":784:790   */\n  dup2\n    /* \"#utility.yul\":778:791   */\n  mload\n    /* \"#utility.yul\":769:791   */\n  swap1\n  pop\n    /* \"#utility.yul\":800:833   */\n  tag_30\n    /* \"#utility.yul\":827:832   */\n  dup2\n    /* \"#utility.yul\":800:833   */\n  tag_12\n  jump\t// in\ntag_30:\n    /* \"#utility.yul\":696:839   */\n  swap3\n  swap2\n  pop\n  pop\n  jump\t// out\n    /* \"#utility.yul\":845:967   */\ntag_14:\n    /* \"#utility.yul\":918:942   */\n  tag_32\n    /* \"#utility.yul\":936:941   */\n  dup2\n    /* \"#utility.yul\":918:942   */\n  tag_10\n  jump\t// in\ntag_32:\n    /* \"#utility.yul\":911:916   */\n  dup2\n    /* \"#utility.yul\":908:943   */\n  eq\n    /* \"#utility.yul\":898:961   */\n  tag_33\n  jumpi\n    /* \"#utility.yul\":957:958   */\n  0x00\n    /* \"#utility.yul\":954:955   */\n  dup1\n    /* \"#utility.yul\":947:959   */\n  revert\n    /* \"#utility.yul\":898:961   */\ntag_33:\n    /* \"#utility.yul\":845:967   */\n  pop\n  jump\t// out\n    /* \"#utility.yul\":973:1116   */\ntag_15:\n    /* \"#utility.yul\":1030:1035   */\n  0x00\n    /* \"#utility.yul\":1061:1067   */\n  dup2\n    /* \"#utility.yul\":1055:1068   */\n  mload\n    /* \"#utility.yul\":1046:1068   */\n  swap1\n  pop\n    /* \"#utility.yul\":1077:1110   */\n  tag_35\n    /* \"#utility.yul\":1104:1109   */\n  dup2\n    /* \"#utility.yul\":1077:1110   */\n  tag_14\n  jump\t// in\ntag_35:\n    /* \"#utility.yul\":973:1116   */\n  swap3\n  swap2\n  pop\n  pop\n  jump\t// out\n    /* \"#utility.yul\":1122:1212   */\ntag_16:\n    /* \"#utility.yul\":1157:1164   */\n  0x00\n    /* \"#utility.yul\":1200:1205   */\n  dup2\n    /* \"#utility.yul\":1197:1198   */\n  0x02\n    /* \"#utility.yul\":1186:1206   */\n  signextend\n    /* \"#utility.yul\":1175:1206   */\n  swap1\n  pop\n    /* \"#utility.yul\":1122:1212   */\n  swap2\n  swap1\n  pop\n  jump\t// out\n    /* \"#utility.yul\":1218:1336   */\ntag_17:\n    /* \"#utility.yul\":1289:1311   */\n  tag_38\n    /* \"#utility.yul\":1305:1310   */\n  dup2\n    /* \"#utility.yul\":1289:1311   */\n  tag_16\n  jump\t// in\ntag_38:\n    /* \"#utility.yul\":1282:1287   */\n  dup2\n    /* \"#utility.yul\":1279:1312   */\n  eq\n    /* \"#utility.yul\":1269:1330   */\n  tag_39\n  jumpi\n    /* \"#utility.yul\":1326:1327   */\n  0x00\n    /* \"#utility.yul\":1323:1324   */\n  dup1\n    /* \"#utility.yul\":1316:1328   */\n  revert\n    /* \"#utility.yul\":1269:1330   */\ntag_39:\n    /* \"#utility.yul\":1218:1336   */\n  pop\n  jump\t// out\n    /* \"#utility.yul\":1342:1481   */\ntag_18:\n    /* \"#utility.yul\":1397:1402   */\n  0x00\n    /* \"#utility.yul\":1428:1434   */\n  dup2\n    /* \"#utility.yul\":1422:1435   */\n  mload\n    /* \"#utility.yul\":1413:1435   */\n  swap1\n  pop\n    /* \"#utility.yul\":1444:1475   */\n  tag_41\n    /* \"#utility.yul\":1469:1474   */\n  dup2\n    /* \"#utility.yul\":1444:1475   */\n  tag_17\n  jump\t// in\ntag_41:\n    /* \"#utility.yul\":1342:1481   */\n  swap3\n  swap2\n  pop\n  pop\n  jump\t// out\n    /* \"#utility.yul\":1487:2303   */\ntag_3:\n    /* \"#utility.yul\":1582:1588   */\n  0x00\n    /* \"#utility.yul\":1590:1596   */\n  dup1\n    /* \"#utility.yul\":1598:1604   */\n  0x00\n    /* \"#utility.yul\":1606:1612   */\n  dup1\n    /* \"#utility.yul\":1655:1658   */\n  0x80\n    /* \"#utility.yul\":1643:1652   */\n  dup6\n    /* \"#utility.yul\":1634:1641   */\n  dup8\n    /* \"#utility.yul\":1630:1653   */\n  sub\n    /* \"#utility.yul\":1626:1659   */\n  slt\n    /* \"#utility.yul\":1623:1743   */\n  iszero\n  tag_43\n  jumpi\n    /* \"#utility.yul\":1662:1741   */\n  tag_44\n  tag_8\n  jump\t// in\ntag_44:\n    /* \"#utility.yul\":1623:1743   */\ntag_43:\n    /* \"#utility.yul\":1782:1783   */\n  0x00\n    /* \"#utility.yul\":1807:1871   */\n  tag_45\n    /* \"#utility.yul\":1863:1870   */\n  dup8\n    /* \"#utility.yul\":1854:1860   */\n  dup3\n    /* \"#utility.yul\":1843:1852   */\n  dup9\n    /* \"#utility.yul\":1839:1861   */\n  add\n    /* \"#utility.yul\":1807:1871   */\n  tag_13\n  jump\t// in\ntag_45:\n    /* \"#utility.yul\":1797:1871   */\n  swap5\n  pop\n    /* \"#utility.yul\":1753:1881   */\n  pop\n    /* \"#utility.yul\":1920:1922   */\n  0x20\n    /* \"#utility.yul\":1946:2010   */\n  tag_46\n    /* \"#utility.yul\":2002:2009   */\n  dup8\n    /* \"#utility.yul\":1993:1999   */\n  dup3\n    /* \"#utility.yul\":1982:1991   */\n  dup9\n    /* \"#utility.yul\":1978:2000   */\n  add\n    /* \"#utility.yul\":1946:2010   */\n  tag_13\n  jump\t// in\ntag_46:\n    /* \"#utility.yul\":1936:2010   */\n  swap4\n  pop\n    /* \"#utility.yul\":1891:2020   */\n  pop\n    /* \"#utility.yul\":2059:2061   */\n  0x40\n    /* \"#utility.yul\":2085:2149   */\n  tag_47\n    /* \"#utility.yul\":2141:2148   */\n  dup8\n    /* \"#utility.yul\":2132:2138   */\n  dup3\n    /* \"#utility.yul\":2121:2130   */\n  dup9\n    /* \"#utility.yul\":2117:2139   */\n  add\n    /* \"#utility.yul\":2085:2149   */\n  tag_15\n  jump\t// in\ntag_47:\n    /* \"#utility.yul\":2075:2149   */\n  swap3\n  pop\n    /* \"#utility.yul\":2030:2159   */\n  pop\n    /* \"#utility.yul\":2198:2200   */\n  0x60\n    /* \"#utility.yul\":2224:2286   */\n  tag_48\n    /* \"#utility.yul\":2278:2285   */\n  dup8\n    /* \"#utility.yul\":2269:2275   */\n  dup3\n    /* \"#utility.yul\":2258:2267   */\n  dup9\n    /* \"#utility.yul\":2254:2276   */\n  add\n    /* \"#utility.yul\":2224:2286   */\n  tag_18\n  jump\t// in\ntag_48:\n    /* \"#utility.yul\":2214:2286   */\n  swap2\n  pop\n    /* \"#utility.yul\":2169:2296   */\n  pop\n    /* \"#utility.yul\":1487:2303   */\n  swap3\n  swap6\n  swap2\n  swap5\n  pop\n  swap3\n  pop\n  jump\t// out\n    /* \"contracts/UniswapV3Pool.sol\":287:3579  contract UniswapV3Pool {... */\ntag_6:\n  mload(0x80)\n  mload(0xa0)\n  codecopy(0x00, dataOffset(sub_0), dataSize(sub_0))\n  0x00\n  assignImmutable(\"0x1b6edb65b6c2611a7285cc668f4110f574a7bc3b0d28690b40a16f141eada39a\")\n  0x00\n  assignImmutable(\"0xa65d03add95baf22e482ebcd3423aa9bf9d8b0ec3fca2831960080b84536d360\")\n  return(0x00, dataSize(sub_0))\nstop\n\nsub_0: assembly {\n        /* \"contracts/UniswapV3Pool.sol\":287:3579  contract UniswapV3Pool {... */\n      mstore(0x40, 0x80)\n      callvalue\n      dup1\n      iszero\n      tag_1\n      jumpi\n      0x00\n      dup1\n      revert\n    tag_1:\n      pop\n      jumpi(tag_2, lt(calldatasize, 0x04))\n      shr(0xe0, calldataload(0x00))\n      dup1\n      0x3c8a7d8d\n      gt\n      tag_10\n      jumpi\n      dup1\n      0x3c8a7d8d\n      eq\n      tag_6\n      jumpi\n      dup1\n      0x514ea4bf\n      eq\n      tag_7\n      jumpi\n      dup1\n      0xd21220a7\n      eq\n      tag_8\n      jumpi\n      dup1\n      0xf30dba93\n      eq\n      tag_9\n      jumpi\n      jump(tag_2)\n    tag_10:\n      dup1\n      0x0dfe1681\n      eq\n      tag_3\n      jumpi\n      dup1\n      0x1a686502\n      eq\n      tag_4\n      jumpi\n      dup1\n      0x3850c7bd\n      eq\n      tag_5\n      jumpi\n    tag_2:\n      0x00\n      dup1\n      revert\n        /* \"contracts/UniswapV3Pool.sol\":1150:1181  address public immutable token0 */\n    tag_3:\n      tag_11\n      tag_12\n      jump\t// in\n    tag_11:\n      mload(0x40)\n      tag_13\n      swap2\n      swap1\n      tag_14\n      jump\t// in\n    tag_13:\n      mload(0x40)\n      dup1\n      swap2\n      sub\n      swap1\n      return\n        /* \"contracts/UniswapV3Pool.sol\":1578:1602  uint128 public liquidity */\n    tag_4:\n      tag_15\n      tag_16\n      jump\t// in\n    tag_15:\n      mload(0x40)\n      tag_17\n      swap2\n      swap1\n      tag_18\n      jump\t// in\n    tag_17:\n      mload(0x40)\n      dup1\n      swap2\n      sub\n      swap1\n      return\n        /* \"contracts/UniswapV3Pool.sol\":1519:1537  Slot0 public slot0 */\n    tag_5:\n      tag_19\n      tag_20\n      jump\t// in\n    tag_19:\n      mload(0x40)\n      tag_21\n      swap3\n      swap2\n      swap1\n      tag_22\n      jump\t// in\n    tag_21:\n      mload(0x40)\n      dup1\n      swap2\n      sub\n      swap1\n      return\n        /* \"contracts/UniswapV3Pool.sol\":2022:3314  function mint(... */\n    tag_6:\n      tag_23\n      0x04\n      dup1\n      calldatasize\n      sub\n      dup2\n      add\n      swap1\n      tag_24\n      swap2\n      swap1\n      tag_25\n      jump\t// in\n    tag_24:\n      tag_26\n      jump\t// in\n    tag_23:\n      mload(0x40)\n      tag_27\n      swap3\n      swap2\n      swap1\n      tag_28\n      jump\t// in\n    tag_27:\n      mload(0x40)\n      dup1\n      swap2\n      sub\n      swap1\n      return\n        /* \"contracts/UniswapV3Pool.sol\":1700:1750  mapping(bytes32 => Position.Info) public positions */\n    tag_7:\n      tag_29\n      0x04\n      dup1\n      calldatasize\n      sub\n      dup2\n      add\n      swap1\n      tag_30\n      swap2\n      swap1\n      tag_31\n      jump\t// in\n    tag_30:\n      tag_32\n      jump\t// in\n    tag_29:\n      mload(0x40)\n      tag_33\n      swap2\n      swap1\n      tag_18\n      jump\t// in\n    tag_33:\n      mload(0x40)\n      dup1\n      swap2\n      sub\n      swap1\n      return\n        /* \"contracts/UniswapV3Pool.sol\":1188:1219  address public immutable token1 */\n    tag_8:\n      tag_34\n      tag_35\n      jump\t// in\n    tag_34:\n      mload(0x40)\n      tag_36\n      swap2\n      swap1\n      tag_14\n      jump\t// in\n    tag_36:\n      mload(0x40)\n      dup1\n      swap2\n      sub\n      swap1\n      return\n        /* \"contracts/UniswapV3Pool.sol\":1630:1670  mapping(int24 => Tick.Info) public ticks */\n    tag_9:\n      tag_37\n      0x04\n      dup1\n      calldatasize\n      sub\n      dup2\n      add\n      swap1\n      tag_38\n      swap2\n      swap1\n      tag_39\n      jump\t// in\n    tag_38:\n      tag_40\n      jump\t// in\n    tag_37:\n      mload(0x40)\n      tag_41\n      swap3\n      swap2\n      swap1\n      tag_42\n      jump\t// in\n    tag_41:\n      mload(0x40)\n      dup1\n      swap2\n      sub\n      swap1\n      return\n        /* \"contracts/UniswapV3Pool.sol\":1150:1181  address public immutable token0 */\n    tag_12:\n      immutable(\"0xa65d03add95baf22e482ebcd3423aa9bf9d8b0ec3fca2831960080b84536d360\")\n      dup2\n      jump\t// out\n        /* \"contracts/UniswapV3Pool.sol\":1578:1602  uint128 public liquidity */\n    tag_16:\n      0x01\n      0x00\n      swap1\n      sload\n      swap1\n      0x0100\n      exp\n      swap1\n      div\n      0xffffffffffffffffffffffffffffffff\n      and\n      dup2\n      jump\t// out\n        /* \"contracts/UniswapV3Pool.sol\":1519:1537  Slot0 public slot0 */\n    tag_20:\n      0x00\n      dup1\n      0x00\n      add\n      0x00\n      swap1\n      sload\n      swap1\n      0x0100\n      exp\n      swap1\n      div\n      0xffffffffffffffffffffffffffffffffffffffff\n      and\n      swap1\n      dup1\n      0x00\n      add\n      0x14\n      swap1\n      sload\n      swap1\n      0x0100\n      exp\n      swap1\n      div\n      0x02\n      signextend\n      swap1\n      pop\n      dup3\n      jump\t// out\n        /* \"contracts/UniswapV3Pool.sol\":2022:3314  function mint(... */\n    tag_26:\n        /* \"contracts/UniswapV3Pool.sol\":2191:2206  uint256 amount0 */\n      0x00\n        /* \"contracts/UniswapV3Pool.sol\":2208:2223  uint256 amount1 */\n      dup1\n        /* \"contracts/UniswapV3Pool.sol\":2266:2275  upperTick */\n      dup6\n        /* \"contracts/UniswapV3Pool.sol\":2253:2275  lowerTick >= upperTick */\n      0x02\n      signextend\n        /* \"contracts/UniswapV3Pool.sol\":2253:2262  lowerTick */\n      dup8\n        /* \"contracts/UniswapV3Pool.sol\":2253:2275  lowerTick >= upperTick */\n      0x02\n      signextend\n      slt\n      iszero\n        /* \"contracts/UniswapV3Pool.sol\":2253:2312  lowerTick >= upperTick ||... */\n      dup1\n      tag_44\n      jumpi\n      pop\n        /* \"contracts/UniswapV3Pool.sol\":1055:1062  -887272 */\n      0xfffffffffffffffffffffffffffffffffffffffffffffffffffffffffff27618\n        /* \"contracts/UniswapV3Pool.sol\":2292:2312  lowerTick < MIN_TICK */\n      0x02\n      signextend\n        /* \"contracts/UniswapV3Pool.sol\":2292:2301  lowerTick */\n      dup8\n        /* \"contracts/UniswapV3Pool.sol\":2292:2312  lowerTick < MIN_TICK */\n      0x02\n      signextend\n      slt\n        /* \"contracts/UniswapV3Pool.sol\":2253:2312  lowerTick >= upperTick ||... */\n    tag_44:\n        /* \"contracts/UniswapV3Pool.sol\":2253:2349  lowerTick >= upperTick ||... */\n      dup1\n      tag_45\n      jumpi\n      pop\n        /* \"contracts/UniswapV3Pool.sol\":1055:1062  -887272 */\n      0xfffffffffffffffffffffffffffffffffffffffffffffffffffffffffff27618\n        /* \"contracts/UniswapV3Pool.sol\":1104:1113  -MIN_TICK */\n      tag_46\n      swap1\n      tag_47\n      jump\t// in\n    tag_46:\n        /* \"contracts/UniswapV3Pool.sol\":2329:2349  upperTick > MAX_TICK */\n      0x02\n      signextend\n        /* \"contracts/UniswapV3Pool.sol\":2329:2338  upperTick */\n      dup7\n        /* \"contracts/UniswapV3Pool.sol\":2329:2349  upperTick > MAX_TICK */\n      0x02\n      signextend\n      sgt\n        /* \"contracts/UniswapV3Pool.sol\":2253:2349  lowerTick >= upperTick ||... */\n    tag_45:\n        /* \"contracts/UniswapV3Pool.sol\":2236:2386  if(... */\n      iszero\n      tag_48\n      jumpi\n        /* \"contracts/UniswapV3Pool.sol\":2368:2386  InvalidTickRange() */\n      mload(0x40)\n      0x064847d000000000000000000000000000000000000000000000000000000000\n      dup2\n      mstore\n      0x04\n      add\n      mload(0x40)\n      dup1\n      swap2\n      sub\n      swap1\n      revert\n        /* \"contracts/UniswapV3Pool.sol\":2236:2386  if(... */\n    tag_48:\n        /* \"contracts/UniswapV3Pool.sol\":2413:2414  0 */\n      0x00\n        /* \"contracts/UniswapV3Pool.sol\":2403:2409  amount */\n      dup6\n        /* \"contracts/UniswapV3Pool.sol\":2403:2414  amount == 0 */\n      0xffffffffffffffffffffffffffffffff\n      and\n      sub\n        /* \"contracts/UniswapV3Pool.sol\":2399:2438  if (amount == 0) revert ZeroLiquidity() */\n      tag_49\n      jumpi\n        /* \"contracts/UniswapV3Pool.sol\":2423:2438  ZeroLiquidity() */\n      mload(0x40)\n      0x1007454800000000000000000000000000000000000000000000000000000000\n      dup2\n      mstore\n      0x04\n      add\n      mload(0x40)\n      dup1\n      swap2\n      sub\n      swap1\n      revert\n        /* \"contracts/UniswapV3Pool.sol\":2399:2438  if (amount == 0) revert ZeroLiquidity() */\n    tag_49:\n        /* \"contracts/UniswapV3Pool.sol\":2451:2482  ticks.update(lowerTick, amount) */\n      tag_50\n        /* \"contracts/UniswapV3Pool.sol\":2464:2473  lowerTick */\n      dup8\n        /* \"contracts/UniswapV3Pool.sol\":2475:2481  amount */\n      dup7\n        /* \"contracts/UniswapV3Pool.sol\":2451:2456  ticks */\n      0x02\n        /* \"contracts/UniswapV3Pool.sol\":2451:2463  ticks.update */\n      tag_51\n      swap1\n        /* \"contracts/UniswapV3Pool.sol\":2451:2482  ticks.update(lowerTick, amount) */\n      swap3\n      swap2\n      swap1\n      0xffffffff\n      and\n      jump\t// in\n    tag_50:\n        /* \"contracts/UniswapV3Pool.sol\":2493:2524  ticks.update(upperTick, amount) */\n      tag_52\n        /* \"contracts/UniswapV3Pool.sol\":2506:2515  upperTick */\n      dup7\n        /* \"contracts/UniswapV3Pool.sol\":2517:2523  amount */\n      dup7\n        /* \"contracts/UniswapV3Pool.sol\":2493:2498  ticks */\n      0x02\n        /* \"contracts/UniswapV3Pool.sol\":2493:2505  ticks.update */\n      tag_51\n      swap1\n        /* \"contracts/UniswapV3Pool.sol\":2493:2524  ticks.update(upperTick, amount) */\n      swap3\n      swap2\n      swap1\n      0xffffffff\n      and\n      jump\t// in\n    tag_52:\n        /* \"contracts/UniswapV3Pool.sol\":2537:2567  Position.Info storage position */\n      0x00\n        /* \"contracts/UniswapV3Pool.sol\":2570:2662  positions.get(... */\n      tag_53\n        /* \"contracts/UniswapV3Pool.sol\":2598:2603  owner */\n      dup10\n        /* \"contracts/UniswapV3Pool.sol\":2618:2627  lowerTick */\n      dup10\n        /* \"contracts/UniswapV3Pool.sol\":2642:2651  upperTick */\n      dup10\n        /* \"contracts/UniswapV3Pool.sol\":2570:2579  positions */\n      0x03\n        /* \"contracts/UniswapV3Pool.sol\":2570:2583  positions.get */\n      tag_54\n      swap1\n        /* \"contracts/UniswapV3Pool.sol\":2570:2662  positions.get(... */\n      swap4\n      swap3\n      swap2\n      swap1\n      0xffffffff\n      and\n      jump\t// in\n    tag_53:\n        /* \"contracts/UniswapV3Pool.sol\":2537:2662  Position.Info storage position = positions.get(... */\n      swap1\n      pop\n        /* \"contracts/UniswapV3Pool.sol\":2673:2696  position.update(amount) */\n      tag_55\n        /* \"contracts/UniswapV3Pool.sol\":2689:2695  amount */\n      dup7\n        /* \"contracts/UniswapV3Pool.sol\":2673:2681  position */\n      dup3\n        /* \"contracts/UniswapV3Pool.sol\":2673:2688  position.update */\n      tag_56\n      swap1\n        /* \"contracts/UniswapV3Pool.sol\":2673:2696  position.update(amount) */\n      swap2\n      swap1\n      0xffffffff\n      and\n      jump\t// in\n    tag_55:\n        /* \"contracts/UniswapV3Pool.sol\":2709:2731  uint256 balance0Before */\n      0x00\n        /* \"contracts/UniswapV3Pool.sol\":2742:2764  uint256 balance1Before */\n      dup1\n        /* \"contracts/UniswapV3Pool.sol\":2789:2790  0 */\n      0x00\n        /* \"contracts/UniswapV3Pool.sol\":2779:2786  amount0 */\n      dup6\n        /* \"contracts/UniswapV3Pool.sol\":2779:2790  amount0 > 0 */\n      gt\n        /* \"contracts/UniswapV3Pool.sol\":2775:2819  if (amount0 > 0) balance0Before = balance0() */\n      iszero\n      tag_57\n      jumpi\n        /* \"contracts/UniswapV3Pool.sol\":2809:2819  balance0() */\n      tag_58\n        /* \"contracts/UniswapV3Pool.sol\":2809:2817  balance0 */\n      tag_59\n        /* \"contracts/UniswapV3Pool.sol\":2809:2819  balance0() */\n      jump\t// in\n    tag_58:\n        /* \"contracts/UniswapV3Pool.sol\":2792:2819  balance0Before = balance0() */\n      swap2\n      pop\n        /* \"contracts/UniswapV3Pool.sol\":2775:2819  if (amount0 > 0) balance0Before = balance0() */\n    tag_57:\n        /* \"contracts/UniswapV3Pool.sol\":2844:2845  0 */\n      0x00\n        /* \"contracts/UniswapV3Pool.sol\":2834:2841  amount0 */\n      dup6\n        /* \"contracts/UniswapV3Pool.sol\":2834:2845  amount0 > 0 */\n      gt\n        /* \"contracts/UniswapV3Pool.sol\":2830:2874  if (amount0 > 0) balance1Before = balance1() */\n      iszero\n      tag_60\n      jumpi\n        /* \"contracts/UniswapV3Pool.sol\":2864:2874  balance1() */\n      tag_61\n        /* \"contracts/UniswapV3Pool.sol\":2864:2872  balance1 */\n      tag_62\n        /* \"contracts/UniswapV3Pool.sol\":2864:2874  balance1() */\n      jump\t// in\n    tag_61:\n        /* \"contracts/UniswapV3Pool.sol\":2847:2874  balance1Before = balance1() */\n      swap1\n      pop\n        /* \"contracts/UniswapV3Pool.sol\":2830:2874  if (amount0 > 0) balance1Before = balance1() */\n    tag_60:\n        /* \"contracts/UniswapV3Pool.sol\":2910:2920  msg.sender */\n      caller\n        /* \"contracts/UniswapV3Pool.sol\":2887:2943  IUniswapV3MintCallback(msg.sender).uniswapV3MintCallback */\n      0xffffffffffffffffffffffffffffffffffffffff\n      and\n      0xd3487997\n        /* \"contracts/UniswapV3Pool.sol\":2958:2965  amount0 */\n      dup7\n        /* \"contracts/UniswapV3Pool.sol\":2980:2987  amount1 */\n      dup7\n        /* \"contracts/UniswapV3Pool.sol\":3002:3006  data */\n      dup11\n      dup11\n        /* \"contracts/UniswapV3Pool.sol\":2887:3017  IUniswapV3MintCallback(msg.sender).uniswapV3MintCallback(... */\n      mload(0x40)\n      dup6\n      0xffffffff\n      and\n      0xe0\n      shl\n      dup2\n      mstore\n      0x04\n      add\n      tag_63\n      swap5\n      swap4\n      swap3\n      swap2\n      swap1\n      tag_64\n      jump\t// in\n    tag_63:\n      0x00\n      mload(0x40)\n      dup1\n      dup4\n      sub\n      dup2\n      0x00\n      dup8\n      dup1\n      extcodesize\n      iszero\n      dup1\n      iszero\n      tag_65\n      jumpi\n      0x00\n      dup1\n      revert\n    tag_65:\n      pop\n      gas\n      call\n      iszero\n      dup1\n      iszero\n      tag_67\n      jumpi\n      returndatasize\n      0x00\n      dup1\n      returndatacopy\n      revert(0x00, returndatasize)\n    tag_67:\n      pop\n      pop\n      pop\n      pop\n        /* \"contracts/UniswapV3Pool.sol\":3041:3042  0 */\n      0x00\n        /* \"contracts/UniswapV3Pool.sol\":3031:3038  amount0 */\n      dup6\n        /* \"contracts/UniswapV3Pool.sol\":3031:3042  amount0 > 0 */\n      gt\n        /* \"contracts/UniswapV3Pool.sol\":3031:3083  amount0 > 0 && balance0Before + amount0 > balance0() */\n      dup1\n      iszero\n      tag_68\n      jumpi\n      pop\n        /* \"contracts/UniswapV3Pool.sol\":3073:3083  balance0() */\n      tag_69\n        /* \"contracts/UniswapV3Pool.sol\":3073:3081  balance0 */\n      tag_59\n        /* \"contracts/UniswapV3Pool.sol\":3073:3083  balance0() */\n      jump\t// in\n    tag_69:\n        /* \"contracts/UniswapV3Pool.sol\":3063:3070  amount0 */\n      dup6\n        /* \"contracts/UniswapV3Pool.sol\":3046:3060  balance0Before */\n      dup4\n        /* \"contracts/UniswapV3Pool.sol\":3046:3070  balance0Before + amount0 */\n      tag_70\n      swap2\n      swap1\n      tag_71\n      jump\t// in\n    tag_70:\n        /* \"contracts/UniswapV3Pool.sol\":3046:3083  balance0Before + amount0 > balance0() */\n      gt\n        /* \"contracts/UniswapV3Pool.sol\":3031:3083  amount0 > 0 && balance0Before + amount0 > balance0() */\n    tag_68:\n        /* \"contracts/UniswapV3Pool.sol\":3028:3117  if(amount0 > 0 && balance0Before + amount0 > balance0()) revert InsufficientInputAmount() */\n      iszero\n      tag_72\n      jumpi\n        /* \"contracts/UniswapV3Pool.sol\":3092:3117  InsufficientInputAmount() */\n      mload(0x40)\n      0x098fb56100000000000000000000000000000000000000000000000000000000\n      dup2\n      mstore\n      0x04\n      add\n      mload(0x40)\n      dup1\n      swap2\n      sub\n      swap1\n      revert\n        /* \"contracts/UniswapV3Pool.sol\":3028:3117  if(amount0 > 0 && balance0Before + amount0 > balance0()) revert InsufficientInputAmount() */\n    tag_72:\n        /* \"contracts/UniswapV3Pool.sol\":3141:3142  0 */\n      0x00\n        /* \"contracts/UniswapV3Pool.sol\":3131:3138  amount1 */\n      dup5\n        /* \"contracts/UniswapV3Pool.sol\":3131:3142  amount1 > 0 */\n      gt\n        /* \"contracts/UniswapV3Pool.sol\":3131:3183  amount1 > 0 && balance1Before + amount1 > balance1() */\n      dup1\n      iszero\n      tag_73\n      jumpi\n      pop\n        /* \"contracts/UniswapV3Pool.sol\":3173:3183  balance1() */\n      tag_74\n        /* \"contracts/UniswapV3Pool.sol\":3173:3181  balance1 */\n      tag_62\n        /* \"contracts/UniswapV3Pool.sol\":3173:3183  balance1() */\n      jump\t// in\n    tag_74:\n        /* \"contracts/UniswapV3Pool.sol\":3163:3170  amount1 */\n      dup5\n        /* \"contracts/UniswapV3Pool.sol\":3146:3160  balance1Before */\n      dup3\n        /* \"contracts/UniswapV3Pool.sol\":3146:3170  balance1Before + amount1 */\n      tag_75\n      swap2\n      swap1\n      tag_71\n      jump\t// in\n    tag_75:\n        /* \"contracts/UniswapV3Pool.sol\":3146:3183  balance1Before + amount1 > balance1() */\n      gt\n        /* \"contracts/UniswapV3Pool.sol\":3131:3183  amount1 > 0 && balance1Before + amount1 > balance1() */\n    tag_73:\n        /* \"contracts/UniswapV3Pool.sol\":3128:3217  if(amount1 > 0 && balance1Before + amount1 > balance1()) revert InsufficientInputAmount() */\n      iszero\n      tag_76\n      jumpi\n        /* \"contracts/UniswapV3Pool.sol\":3192:3217  InsufficientInputAmount() */\n      mload(0x40)\n      0x098fb56100000000000000000000000000000000000000000000000000000000\n      dup2\n      mstore\n      0x04\n      add\n      mload(0x40)\n      dup1\n      swap2\n      sub\n      swap1\n      revert\n        /* \"contracts/UniswapV3Pool.sol\":3128:3217  if(amount1 > 0 && balance1Before + amount1 > balance1()) revert InsufficientInputAmount() */\n    tag_76:\n        /* \"contracts/UniswapV3Pool.sol\":3270:3279  upperTick */\n      dup9\n        /* \"contracts/UniswapV3Pool.sol\":3235:3306  Mint(msg.sender, owner, lowerTick, upperTick, amount, amount0, amount1) */\n      0x02\n      signextend\n        /* \"contracts/UniswapV3Pool.sol\":3259:3268  lowerTick */\n      dup11\n        /* \"contracts/UniswapV3Pool.sol\":3235:3306  Mint(msg.sender, owner, lowerTick, upperTick, amount, amount0, amount1) */\n      0x02\n      signextend\n        /* \"contracts/UniswapV3Pool.sol\":3252:3257  owner */\n      dup13\n        /* \"contracts/UniswapV3Pool.sol\":3235:3306  Mint(msg.sender, owner, lowerTick, upperTick, amount, amount0, amount1) */\n      0xffffffffffffffffffffffffffffffffffffffff\n      and\n      0x7a53080ba414158be7ec69b987b5fb7d07dee101fe85488f0853ae16239d0bde\n        /* \"contracts/UniswapV3Pool.sol\":3240:3250  msg.sender */\n      caller\n        /* \"contracts/UniswapV3Pool.sol\":3281:3287  amount */\n      dup13\n        /* \"contracts/UniswapV3Pool.sol\":3289:3296  amount0 */\n      dup11\n        /* \"contracts/UniswapV3Pool.sol\":3298:3305  amount1 */\n      dup11\n        /* \"contracts/UniswapV3Pool.sol\":3235:3306  Mint(msg.sender, owner, lowerTick, upperTick, amount, amount0, amount1) */\n      mload(0x40)\n      tag_77\n      swap5\n      swap4\n      swap3\n      swap2\n      swap1\n      tag_78\n      jump\t// in\n    tag_77:\n      mload(0x40)\n      dup1\n      swap2\n      sub\n      swap1\n      log4\n        /* \"contracts/UniswapV3Pool.sol\":2225:3314  {... */\n      pop\n      pop\n      pop\n        /* \"contracts/UniswapV3Pool.sol\":2022:3314  function mint(... */\n      swap7\n      pop\n      swap7\n      swap5\n      pop\n      pop\n      pop\n      pop\n      pop\n      jump\t// out\n        /* \"contracts/UniswapV3Pool.sol\":1700:1750  mapping(bytes32 => Position.Info) public positions */\n    tag_32:\n      mstore(0x20, 0x03)\n      dup1\n      0x00\n      mstore\n      keccak256(0x00, 0x40)\n      0x00\n      swap2\n      pop\n      swap1\n      pop\n      dup1\n      0x00\n      add\n      0x00\n      swap1\n      sload\n      swap1\n      0x0100\n      exp\n      swap1\n      div\n      0xffffffffffffffffffffffffffffffff\n      and\n      swap1\n      pop\n      dup2\n      jump\t// out\n        /* \"contracts/UniswapV3Pool.sol\":1188:1219  address public immutable token1 */\n    tag_35:\n      immutable(\"0x1b6edb65b6c2611a7285cc668f4110f574a7bc3b0d28690b40a16f141eada39a\")\n      dup2\n      jump\t// out\n        /* \"contracts/UniswapV3Pool.sol\":1630:1670  mapping(int24 => Tick.Info) public ticks */\n    tag_40:\n      mstore(0x20, 0x02)\n      dup1\n      0x00\n      mstore\n      keccak256(0x00, 0x40)\n      0x00\n      swap2\n      pop\n      swap1\n      pop\n      dup1\n      0x00\n      add\n      0x00\n      swap1\n      sload\n      swap1\n      0x0100\n      exp\n      swap1\n      div\n      0xff\n      and\n      swap1\n      dup1\n      0x00\n      add\n      0x01\n      swap1\n      sload\n      swap1\n      0x0100\n      exp\n      swap1\n      div\n      0xffffffffffffffffffffffffffffffff\n      and\n      swap1\n      pop\n      dup3\n      jump\t// out\n        /* \"contracts/src/libs/Tick.sol\":169:627  function update(... */\n    tag_51:\n        /* \"contracts/src/libs/Tick.sol\":317:343  Tick.Info storage tickInfo */\n      0x00\n        /* \"contracts/src/libs/Tick.sol\":346:350  self */\n      dup4\n        /* \"contracts/src/libs/Tick.sol\":346:356  self[tick] */\n      0x00\n        /* \"contracts/src/libs/Tick.sol\":351:355  tick */\n      dup5\n        /* \"contracts/src/libs/Tick.sol\":346:356  self[tick] */\n      0x02\n      signextend\n      0x02\n      signextend\n      dup2\n      mstore\n      0x20\n      add\n      swap1\n      dup2\n      mstore\n      0x20\n      add\n      0x00\n      keccak256\n        /* \"contracts/src/libs/Tick.sol\":317:356  Tick.Info storage tickInfo = self[tick] */\n      swap1\n      pop\n        /* \"contracts/src/libs/Tick.sol\":367:390  uint128 liquidityBefore */\n      0x00\n        /* \"contracts/src/libs/Tick.sol\":393:401  tickInfo */\n      dup2\n        /* \"contracts/src/libs/Tick.sol\":393:411  tickInfo.liquidity */\n      0x00\n      add\n      0x01\n      swap1\n      sload\n      swap1\n      0x0100\n      exp\n      swap1\n      div\n      0xffffffffffffffffffffffffffffffff\n      and\n        /* \"contracts/src/libs/Tick.sol\":367:411  uint128 liquidityBefore = tickInfo.liquidity */\n      swap1\n      pop\n        /* \"contracts/src/libs/Tick.sol\":422:444  uint128 liquidityAfter */\n      0x00\n        /* \"contracts/src/libs/Tick.sol\":465:479  liquidityDelta */\n      dup4\n        /* \"contracts/src/libs/Tick.sol\":447:462  liquidityBefore */\n      dup3\n        /* \"contracts/src/libs/Tick.sol\":447:479  liquidityBefore + liquidityDelta */\n      tag_80\n      swap2\n      swap1\n      tag_81\n      jump\t// in\n    tag_80:\n        /* \"contracts/src/libs/Tick.sol\":422:479  uint128 liquidityAfter = liquidityBefore + liquidityDelta */\n      swap1\n      pop\n        /* \"contracts/src/libs/Tick.sol\":515:516  0 */\n      0x00\n        /* \"contracts/src/libs/Tick.sol\":496:511  liquidityBefore */\n      dup3\n        /* \"contracts/src/libs/Tick.sol\":496:516  liquidityBefore == 0 */\n      0xffffffffffffffffffffffffffffffff\n      and\n      sub\n        /* \"contracts/src/libs/Tick.sol\":492:572  if (liquidityBefore == 0) {... */\n      tag_82\n      jumpi\n        /* \"contracts/src/libs/Tick.sol\":556:560  true */\n      0x01\n        /* \"contracts/src/libs/Tick.sol\":533:541  tickInfo */\n      dup4\n        /* \"contracts/src/libs/Tick.sol\":533:553  tickInfo.initialized */\n      0x00\n      add\n      0x00\n        /* \"contracts/src/libs/Tick.sol\":533:560  tickInfo.initialized = true */\n      0x0100\n      exp\n      dup2\n      sload\n      dup2\n      0xff\n      mul\n      not\n      and\n      swap1\n      dup4\n      iszero\n      iszero\n      mul\n      or\n      swap1\n      sstore\n      pop\n        /* \"contracts/src/libs/Tick.sol\":492:572  if (liquidityBefore == 0) {... */\n    tag_82:\n        /* \"contracts/src/libs/Tick.sol\":605:619  liquidityAfter */\n      dup1\n        /* \"contracts/src/libs/Tick.sol\":584:592  tickInfo */\n      dup4\n        /* \"contracts/src/libs/Tick.sol\":584:602  tickInfo.liquidity */\n      0x00\n      add\n      0x01\n        /* \"contracts/src/libs/Tick.sol\":584:619  tickInfo.liquidity = liquidityAfter */\n      0x0100\n      exp\n      dup2\n      sload\n      dup2\n      0xffffffffffffffffffffffffffffffff\n      mul\n      not\n      and\n      swap1\n      dup4\n      0xffffffffffffffffffffffffffffffff\n      and\n      mul\n      or\n      swap1\n      sstore\n      pop\n        /* \"contracts/src/libs/Tick.sol\":306:627  {... */\n      pop\n      pop\n      pop\n        /* \"contracts/src/libs/Tick.sol\":169:627  function update(... */\n      pop\n      pop\n      pop\n      jump\t// out\n        /* \"contracts/src/libs/Position.sol\":154:469  function get(... */\n    tag_54:\n        /* \"contracts/src/libs/Position.sol\":321:351  Position.Info storage position */\n      0x00\n        /* \"contracts/src/libs/Position.sol\":375:379  self */\n      dup5\n        /* \"contracts/src/libs/Position.sol\":375:461  self[... */\n      0x00\n        /* \"contracts/src/libs/Position.sol\":421:426  owner */\n      dup6\n        /* \"contracts/src/libs/Position.sol\":428:437  lowerTick */\n      dup6\n        /* \"contracts/src/libs/Position.sol\":439:448  upperTick */\n      dup6\n        /* \"contracts/src/libs/Position.sol\":404:449  abi.encodePacked(owner, lowerTick, upperTick) */\n      add(0x20, mload(0x40))\n      tag_84\n      swap4\n      swap3\n      swap2\n      swap1\n      tag_85\n      jump\t// in\n    tag_84:\n      mload(0x40)\n      0x20\n      dup2\n      dup4\n      sub\n      sub\n      dup2\n      mstore\n      swap1\n      0x40\n      mstore\n        /* \"contracts/src/libs/Position.sol\":394:450  keccak256(abi.encodePacked(owner, lowerTick, upperTick)) */\n      dup1\n      mload\n      swap1\n      0x20\n      add\n      keccak256\n        /* \"contracts/src/libs/Position.sol\":375:461  self[... */\n      dup2\n      mstore\n      0x20\n      add\n      swap1\n      dup2\n      mstore\n      0x20\n      add\n      0x00\n      keccak256\n        /* \"contracts/src/libs/Position.sol\":364:461  position = self[... */\n      swap1\n      pop\n        /* \"contracts/src/libs/Position.sol\":154:469  function get(... */\n      swap5\n      swap4\n      pop\n      pop\n      pop\n      pop\n      jump\t// out\n        /* \"contracts/src/libs/Position.sol\":477:716  function update(Info storage self, uint128 liquidityDelta) internal {... */\n    tag_56:\n        /* \"contracts/src/libs/Position.sol\":556:579  uint128 liquidityBefore */\n      0x00\n        /* \"contracts/src/libs/Position.sol\":582:586  self */\n      dup3\n        /* \"contracts/src/libs/Position.sol\":582:596  self.liquidity */\n      0x00\n      add\n      0x00\n      swap1\n      sload\n      swap1\n      0x0100\n      exp\n      swap1\n      div\n      0xffffffffffffffffffffffffffffffff\n      and\n        /* \"contracts/src/libs/Position.sol\":556:596  uint128 liquidityBefore = self.liquidity */\n      swap1\n      pop\n        /* \"contracts/src/libs/Position.sol\":607:629  uint128 liquidityAfter */\n      0x00\n        /* \"contracts/src/libs/Position.sol\":650:664  liquidityDelta */\n      dup3\n        /* \"contracts/src/libs/Position.sol\":632:647  liquidityBefore */\n      dup3\n        /* \"contracts/src/libs/Position.sol\":632:664  liquidityBefore + liquidityDelta */\n      tag_87\n      swap2\n      swap1\n      tag_81\n      jump\t// in\n    tag_87:\n        /* \"contracts/src/libs/Position.sol\":607:664  uint128 liquidityAfter = liquidityBefore + liquidityDelta */\n      swap1\n      pop\n        /* \"contracts/src/libs/Position.sol\":694:708  liquidityAfter */\n      dup1\n        /* \"contracts/src/libs/Position.sol\":677:681  self */\n      dup5\n        /* \"contracts/src/libs/Position.sol\":677:691  self.liquidity */\n      0x00\n      add\n      0x00\n        /* \"contracts/src/libs/Position.sol\":677:708  self.liquidity = liquidityAfter */\n      0x0100\n      exp\n      dup2\n      sload\n      dup2\n      0xffffffffffffffffffffffffffffffff\n      mul\n      not\n      and\n      swap1\n      dup4\n      0xffffffffffffffffffffffffffffffff\n      and\n      mul\n      or\n      swap1\n      sstore\n      pop\n        /* \"contracts/src/libs/Position.sol\":545:716  {... */\n      pop\n      pop\n        /* \"contracts/src/libs/Position.sol\":477:716  function update(Info storage self, uint128 liquidityDelta) internal {... */\n      pop\n      pop\n      jump\t// out\n        /* \"contracts/UniswapV3Pool.sol\":3322:3445  function balance0() internal returns (uint256 balance) {... */\n    tag_59:\n        /* \"contracts/UniswapV3Pool.sol\":3360:3375  uint256 balance */\n      0x00\n        /* \"contracts/UniswapV3Pool.sol\":3405:3411  token0 */\n      immutable(\"0xa65d03add95baf22e482ebcd3423aa9bf9d8b0ec3fca2831960080b84536d360\")\n        /* \"contracts/UniswapV3Pool.sol\":3398:3422  IERC20(token0).balanceOf */\n      0xffffffffffffffffffffffffffffffffffffffff\n      and\n      0x70a08231\n        /* \"contracts/UniswapV3Pool.sol\":3431:3435  this */\n      address\n        /* \"contracts/UniswapV3Pool.sol\":3398:3437  IERC20(token0).balanceOf(address(this)) */\n      mload(0x40)\n      dup3\n      0xffffffff\n      and\n      0xe0\n      shl\n      dup2\n      mstore\n      0x04\n      add\n      tag_89\n      swap2\n      swap1\n      tag_14\n      jump\t// in\n    tag_89:\n      0x20\n      mload(0x40)\n      dup1\n      dup4\n      sub\n      dup2\n      dup7\n      gas\n      staticcall\n      iszero\n      dup1\n      iszero\n      tag_91\n      jumpi\n      returndatasize\n      0x00\n      dup1\n      returndatacopy\n      revert(0x00, returndatasize)\n    tag_91:\n      pop\n      pop\n      pop\n      pop\n      mload(0x40)\n      returndatasize\n      not(0x1f)\n      0x1f\n      dup3\n      add\n      and\n      dup3\n      add\n      dup1\n      0x40\n      mstore\n      pop\n      dup2\n      add\n      swap1\n      tag_92\n      swap2\n      swap1\n      tag_93\n      jump\t// in\n    tag_92:\n        /* \"contracts/UniswapV3Pool.sol\":3388:3437  balance = IERC20(token0).balanceOf(address(this)) */\n      swap1\n      pop\n        /* \"contracts/UniswapV3Pool.sol\":3322:3445  function balance0() internal returns (uint256 balance) {... */\n      swap1\n      jump\t// out\n        /* \"contracts/UniswapV3Pool.sol\":3453:3576  function balance1() internal returns (uint256 balance) {... */\n    tag_62:\n        /* \"contracts/UniswapV3Pool.sol\":3491:3506  uint256 balance */\n      0x00\n        /* \"contracts/UniswapV3Pool.sol\":3536:3542  token1 */\n      immutable(\"0x1b6edb65b6c2611a7285cc668f4110f574a7bc3b0d28690b40a16f141eada39a\")\n        /* \"contracts/UniswapV3Pool.sol\":3529:3553  IERC20(token1).balanceOf */\n      0xffffffffffffffffffffffffffffffffffffffff\n      and\n      0x70a08231\n        /* \"contracts/UniswapV3Pool.sol\":3562:3566  this */\n      address\n        /* \"contracts/UniswapV3Pool.sol\":3529:3568  IERC20(token1).balanceOf(address(this)) */\n      mload(0x40)\n      dup3\n      0xffffffff\n      and\n      0xe0\n      shl\n      dup2\n      mstore\n      0x04\n      add\n      tag_95\n      swap2\n      swap1\n      tag_14\n      jump\t// in\n    tag_95:\n      0x20\n      mload(0x40)\n      dup1\n      dup4\n      sub\n      dup2\n      dup7\n      gas\n      staticcall\n      iszero\n      dup1\n      iszero\n      tag_97\n      jumpi\n      returndatasize\n      0x00\n      dup1\n      returndatacopy\n      revert(0x00, returndatasize)\n    tag_97:\n      pop\n      pop\n      pop\n      pop\n      mload(0x40)\n      returndatasize\n      not(0x1f)\n      0x1f\n      dup3\n      add\n      and\n      dup3\n      add\n      dup1\n      0x40\n      mstore\n      pop\n      dup2\n      add\n      swap1\n      tag_98\n      swap2\n      swap1\n      tag_93\n      jump\t// in\n    tag_98:\n        /* \"contracts/UniswapV3Pool.sol\":3519:3568  balance = IERC20(token1).balanceOf(address(this)) */\n      swap1\n      pop\n        /* \"contracts/UniswapV3Pool.sol\":3453:3576  function balance1() internal returns (uint256 balance) {... */\n      swap1\n      jump\t// out\n        /* \"#utility.yul\":7:133   */\n    tag_99:\n        /* \"#utility.yul\":44:51   */\n      0x00\n        /* \"#utility.yul\":84:126   */\n      0xffffffffffffffffffffffffffffffffffffffff\n        /* \"#utility.yul\":77:82   */\n      dup3\n        /* \"#utility.yul\":73:127   */\n      and\n        /* \"#utility.yul\":62:127   */\n      swap1\n      pop\n        /* \"#utility.yul\":7:133   */\n      swap2\n      swap1\n      pop\n      jump\t// out\n        /* \"#utility.yul\":139:235   */\n    tag_100:\n        /* \"#utility.yul\":176:183   */\n      0x00\n        /* \"#utility.yul\":205:229   */\n      tag_144\n        /* \"#utility.yul\":223:228   */\n      dup3\n        /* \"#utility.yul\":205:229   */\n      tag_99\n      jump\t// in\n    tag_144:\n        /* \"#utility.yul\":194:229   */\n      swap1\n      pop\n        /* \"#utility.yul\":139:235   */\n      swap2\n      swap1\n      pop\n      jump\t// out\n        /* \"#utility.yul\":241:359   */\n    tag_101:\n        /* \"#utility.yul\":328:352   */\n      tag_146\n        /* \"#utility.yul\":346:351   */\n      dup2\n        /* \"#utility.yul\":328:352   */\n      tag_100\n      jump\t// in\n    tag_146:\n        /* \"#utility.yul\":323:326   */\n      dup3\n        /* \"#utility.yul\":316:353   */\n      mstore\n        /* \"#utility.yul\":241:359   */\n      pop\n      pop\n      jump\t// out\n        /* \"#utility.yul\":365:587   */\n    tag_14:\n        /* \"#utility.yul\":458:462   */\n      0x00\n        /* \"#utility.yul\":496:498   */\n      0x20\n        /* \"#utility.yul\":485:494   */\n      dup3\n        /* \"#utility.yul\":481:499   */\n      add\n        /* \"#utility.yul\":473:499   */\n      swap1\n      pop\n        /* \"#utility.yul\":509:580   */\n      tag_148\n        /* \"#utility.yul\":577:578   */\n      0x00\n        /* \"#utility.yul\":566:575   */\n      dup4\n        /* \"#utility.yul\":562:579   */\n      add\n        /* \"#utility.yul\":553:559   */\n      dup5\n        /* \"#utility.yul\":509:580   */\n      tag_101\n      jump\t// in\n    tag_148:\n        /* \"#utility.yul\":365:587   */\n      swap3\n      swap2\n      pop\n      pop\n      jump\t// out\n        /* \"#utility.yul\":593:711   */\n    tag_102:\n        /* \"#utility.yul\":630:637   */\n      0x00\n        /* \"#utility.yul\":670:704   */\n      0xffffffffffffffffffffffffffffffff\n        /* \"#utility.yul\":663:668   */\n      dup3\n        /* \"#utility.yul\":659:705   */\n      and\n        /* \"#utility.yul\":648:705   */\n      swap1\n      pop\n        /* \"#utility.yul\":593:711   */\n      swap2\n      swap1\n      pop\n      jump\t// out\n        /* \"#utility.yul\":717:835   */\n    tag_103:\n        /* \"#utility.yul\":804:828   */\n      tag_151\n        /* \"#utility.yul\":822:827   */\n      dup2\n        /* \"#utility.yul\":804:828   */\n      tag_102\n      jump\t// in\n    tag_151:\n        /* \"#utility.yul\":799:802   */\n      dup3\n        /* \"#utility.yul\":792:829   */\n      mstore\n        /* \"#utility.yul\":717:835   */\n      pop\n      pop\n      jump\t// out\n        /* \"#utility.yul\":841:1063   */\n    tag_18:\n        /* \"#utility.yul\":934:938   */\n      0x00\n        /* \"#utility.yul\":972:974   */\n      0x20\n        /* \"#utility.yul\":961:970   */\n      dup3\n        /* \"#utility.yul\":957:975   */\n      add\n        /* \"#utility.yul\":949:975   */\n      swap1\n      pop\n        /* \"#utility.yul\":985:1056   */\n      tag_153\n        /* \"#utility.yul\":1053:1054   */\n      0x00\n        /* \"#utility.yul\":1042:1051   */\n      dup4\n        /* \"#utility.yul\":1038:1055   */\n      add\n        /* \"#utility.yul\":1029:1035   */\n      dup5\n        /* \"#utility.yul\":985:1056   */\n      tag_103\n      jump\t// in\n    tag_153:\n        /* \"#utility.yul\":841:1063   */\n      swap3\n      swap2\n      pop\n      pop\n      jump\t// out\n        /* \"#utility.yul\":1069:1187   */\n    tag_104:\n        /* \"#utility.yul\":1156:1180   */\n      tag_155\n        /* \"#utility.yul\":1174:1179   */\n      dup2\n        /* \"#utility.yul\":1156:1180   */\n      tag_99\n      jump\t// in\n    tag_155:\n        /* \"#utility.yul\":1151:1154   */\n      dup3\n        /* \"#utility.yul\":1144:1181   */\n      mstore\n        /* \"#utility.yul\":1069:1187   */\n      pop\n      pop\n      jump\t// out\n        /* \"#utility.yul\":1193:1283   */\n    tag_105:\n        /* \"#utility.yul\":1228:1235   */\n      0x00\n        /* \"#utility.yul\":1271:1276   */\n      dup2\n        /* \"#utility.yul\":1268:1269   */\n      0x02\n        /* \"#utility.yul\":1257:1277   */\n      signextend\n        /* \"#utility.yul\":1246:1277   */\n      swap1\n      pop\n        /* \"#utility.yul\":1193:1283   */\n      swap2\n      swap1\n      pop\n      jump\t// out\n        /* \"#utility.yul\":1289:1401   */\n    tag_106:\n        /* \"#utility.yul\":1372:1394   */\n      tag_158\n        /* \"#utility.yul\":1388:1393   */\n      dup2\n        /* \"#utility.yul\":1372:1394   */\n      tag_105\n      jump\t// in\n    tag_158:\n        /* \"#utility.yul\":1367:1370   */\n      dup3\n        /* \"#utility.yul\":1360:1395   */\n      mstore\n        /* \"#utility.yul\":1289:1401   */\n      pop\n      pop\n      jump\t// out\n        /* \"#utility.yul\":1407:1731   */\n    tag_22:\n        /* \"#utility.yul\":1524:1528   */\n      0x00\n        /* \"#utility.yul\":1562:1564   */\n      0x40\n        /* \"#utility.yul\":1551:1560   */\n      dup3\n        /* \"#utility.yul\":1547:1565   */\n      add\n        /* \"#utility.yul\":1539:1565   */\n      swap1\n      pop\n        /* \"#utility.yul\":1575:1646   */\n      tag_160\n        /* \"#utility.yul\":1643:1644   */\n      0x00\n        /* \"#utility.yul\":1632:1641   */\n      dup4\n        /* \"#utility.yul\":1628:1645   */\n      add\n        /* \"#utility.yul\":1619:1625   */\n      dup6\n        /* \"#utility.yul\":1575:1646   */\n      tag_104\n      jump\t// in\n    tag_160:\n        /* \"#utility.yul\":1656:1724   */\n      tag_161\n        /* \"#utility.yul\":1720:1722   */\n      0x20\n        /* \"#utility.yul\":1709:1718   */\n      dup4\n        /* \"#utility.yul\":1705:1723   */\n      add\n        /* \"#utility.yul\":1696:1702   */\n      dup5\n        /* \"#utility.yul\":1656:1724   */\n      tag_106\n      jump\t// in\n    tag_161:\n        /* \"#utility.yul\":1407:1731   */\n      swap4\n      swap3\n      pop\n      pop\n      pop\n      jump\t// out\n        /* \"#utility.yul\":1818:1935   */\n    tag_108:\n        /* \"#utility.yul\":1927:1928   */\n      0x00\n        /* \"#utility.yul\":1924:1925   */\n      dup1\n        /* \"#utility.yul\":1917:1929   */\n      revert\n        /* \"#utility.yul\":1941:2058   */\n    tag_109:\n        /* \"#utility.yul\":2050:2051   */\n      0x00\n        /* \"#utility.yul\":2047:2048   */\n      dup1\n        /* \"#utility.yul\":2040:2052   */\n      revert\n        /* \"#utility.yul\":2064:2186   */\n    tag_110:\n        /* \"#utility.yul\":2137:2161   */\n      tag_166\n        /* \"#utility.yul\":2155:2160   */\n      dup2\n        /* \"#utility.yul\":2137:2161   */\n      tag_100\n      jump\t// in\n    tag_166:\n        /* \"#utility.yul\":2130:2135   */\n      dup2\n        /* \"#utility.yul\":2127:2162   */\n      eq\n        /* \"#utility.yul\":2117:2180   */\n      tag_167\n      jumpi\n        /* \"#utility.yul\":2176:2177   */\n      0x00\n        /* \"#utility.yul\":2173:2174   */\n      dup1\n        /* \"#utility.yul\":2166:2178   */\n      revert\n        /* \"#utility.yul\":2117:2180   */\n    tag_167:\n        /* \"#utility.yul\":2064:2186   */\n      pop\n      jump\t// out\n        /* \"#utility.yul\":2192:2331   */\n    tag_111:\n        /* \"#utility.yul\":2238:2243   */\n      0x00\n        /* \"#utility.yul\":2276:2282   */\n      dup2\n        /* \"#utility.yul\":2263:2283   */\n      calldataload\n        /* \"#utility.yul\":2254:2283   */\n      swap1\n      pop\n        /* \"#utility.yul\":2292:2325   */\n      tag_169\n        /* \"#utility.yul\":2319:2324   */\n      dup2\n        /* \"#utility.yul\":2292:2325   */\n      tag_110\n      jump\t// in\n    tag_169:\n        /* \"#utility.yul\":2192:2331   */\n      swap3\n      swap2\n      pop\n      pop\n      jump\t// out\n        /* \"#utility.yul\":2337:2455   */\n    tag_112:\n        /* \"#utility.yul\":2408:2430   */\n      tag_171\n        /* \"#utility.yul\":2424:2429   */\n      dup2\n        /* \"#utility.yul\":2408:2430   */\n      tag_105\n      jump\t// in\n    tag_171:\n        /* \"#utility.yul\":2401:2406   */\n      dup2\n        /* \"#utility.yul\":2398:2431   */\n      eq\n        /* \"#utility.yul\":2388:2449   */\n      tag_172\n      jumpi\n        /* \"#utility.yul\":2445:2446   */\n      0x00\n        /* \"#utility.yul\":2442:2443   */\n      dup1\n        /* \"#utility.yul\":2435:2447   */\n      revert\n        /* \"#utility.yul\":2388:2449   */\n    tag_172:\n        /* \"#utility.yul\":2337:2455   */\n      pop\n      jump\t// out\n        /* \"#utility.yul\":2461:2596   */\n    tag_113:\n        /* \"#utility.yul\":2505:2510   */\n      0x00\n        /* \"#utility.yul\":2543:2549   */\n      dup2\n        /* \"#utility.yul\":2530:2550   */\n      calldataload\n        /* \"#utility.yul\":2521:2550   */\n      swap1\n      pop\n        /* \"#utility.yul\":2559:2590   */\n      tag_174\n        /* \"#utility.yul\":2584:2589   */\n      dup2\n        /* \"#utility.yul\":2559:2590   */\n      tag_112\n      jump\t// in\n    tag_174:\n        /* \"#utility.yul\":2461:2596   */\n      swap3\n      swap2\n      pop\n      pop\n      jump\t// out\n        /* \"#utility.yul\":2602:2724   */\n    tag_114:\n        /* \"#utility.yul\":2675:2699   */\n      tag_176\n        /* \"#utility.yul\":2693:2698   */\n      dup2\n        /* \"#utility.yul\":2675:2699   */\n      tag_102\n      jump\t// in\n    tag_176:\n        /* \"#utility.yul\":2668:2673   */\n      dup2\n        /* \"#utility.yul\":2665:2700   */\n      eq\n        /* \"#utility.yul\":2655:2718   */\n      tag_177\n      jumpi\n        /* \"#utility.yul\":2714:2715   */\n      0x00\n        /* \"#utility.yul\":2711:2712   */\n      dup1\n        /* \"#utility.yul\":2704:2716   */\n      revert\n        /* \"#utility.yul\":2655:2718   */\n    tag_177:\n        /* \"#utility.yul\":2602:2724   */\n      pop\n      jump\t// out\n        /* \"#utility.yul\":2730:2869   */\n    tag_115:\n        /* \"#utility.yul\":2776:2781   */\n      0x00\n        /* \"#utility.yul\":2814:2820   */\n      dup2\n        /* \"#utility.yul\":2801:2821   */\n      calldataload\n        /* \"#utility.yul\":2792:2821   */\n      swap1\n      pop\n        /* \"#utility.yul\":2830:2863   */\n      tag_179\n        /* \"#utility.yul\":2857:2862   */\n      dup2\n        /* \"#utility.yul\":2830:2863   */\n      tag_114\n      jump\t// in\n    tag_179:\n        /* \"#utility.yul\":2730:2869   */\n      swap3\n      swap2\n      pop\n      pop\n      jump\t// out\n        /* \"#utility.yul\":2875:2992   */\n    tag_116:\n        /* \"#utility.yul\":2984:2985   */\n      0x00\n        /* \"#utility.yul\":2981:2982   */\n      dup1\n        /* \"#utility.yul\":2974:2986   */\n      revert\n        /* \"#utility.yul\":2998:3115   */\n    tag_117:\n        /* \"#utility.yul\":3107:3108   */\n      0x00\n        /* \"#utility.yul\":3104:3105   */\n      dup1\n        /* \"#utility.yul\":3097:3109   */\n      revert\n        /* \"#utility.yul\":3121:3238   */\n    tag_118:\n        /* \"#utility.yul\":3230:3231   */\n      0x00\n        /* \"#utility.yul\":3227:3228   */\n      dup1\n        /* \"#utility.yul\":3220:3232   */\n      revert\n        /* \"#utility.yul\":3257:3809   */\n    tag_119:\n        /* \"#utility.yul\":3314:3322   */\n      0x00\n        /* \"#utility.yul\":3324:3330   */\n      dup1\n        /* \"#utility.yul\":3374:3377   */\n      dup4\n        /* \"#utility.yul\":3367:3371   */\n      0x1f\n        /* \"#utility.yul\":3359:3365   */\n      dup5\n        /* \"#utility.yul\":3355:3372   */\n      add\n        /* \"#utility.yul\":3351:3378   */\n      slt\n        /* \"#utility.yul\":3341:3463   */\n      tag_184\n      jumpi\n        /* \"#utility.yul\":3382:3461   */\n      tag_185\n      tag_116\n      jump\t// in\n    tag_185:\n        /* \"#utility.yul\":3341:3463   */\n    tag_184:\n        /* \"#utility.yul\":3495:3501   */\n      dup3\n        /* \"#utility.yul\":3482:3502   */\n      calldataload\n        /* \"#utility.yul\":3472:3502   */\n      swap1\n      pop\n        /* \"#utility.yul\":3525:3543   */\n      0xffffffffffffffff\n        /* \"#utility.yul\":3517:3523   */\n      dup2\n        /* \"#utility.yul\":3514:3544   */\n      gt\n        /* \"#utility.yul\":3511:3628   */\n      iszero\n      tag_186\n      jumpi\n        /* \"#utility.yul\":3547:3626   */\n      tag_187\n      tag_117\n      jump\t// in\n    tag_187:\n        /* \"#utility.yul\":3511:3628   */\n    tag_186:\n        /* \"#utility.yul\":3661:3665   */\n      0x20\n        /* \"#utility.yul\":3653:3659   */\n      dup4\n        /* \"#utility.yul\":3649:3666   */\n      add\n        /* \"#utility.yul\":3637:3666   */\n      swap2\n      pop\n        /* \"#utility.yul\":3715:3718   */\n      dup4\n        /* \"#utility.yul\":3707:3711   */\n      0x01\n        /* \"#utility.yul\":3699:3705   */\n      dup3\n        /* \"#utility.yul\":3695:3712   */\n      mul\n        /* \"#utility.yul\":3685:3693   */\n      dup4\n        /* \"#utility.yul\":3681:3713   */\n      add\n        /* \"#utility.yul\":3678:3719   */\n      gt\n        /* \"#utility.yul\":3675:3803   */\n      iszero\n      tag_188\n      jumpi\n        /* \"#utility.yul\":3722:3801   */\n      tag_189\n      tag_118\n      jump\t// in\n    tag_189:\n        /* \"#utility.yul\":3675:3803   */\n    tag_188:\n        /* \"#utility.yul\":3257:3809   */\n      swap3\n      pop\n      swap3\n      swap1\n      pop\n      jump\t// out\n        /* \"#utility.yul\":3815:4916   */\n    tag_25:\n        /* \"#utility.yul\":3917:3923   */\n      0x00\n        /* \"#utility.yul\":3925:3931   */\n      dup1\n        /* \"#utility.yul\":3933:3939   */\n      0x00\n        /* \"#utility.yul\":3941:3947   */\n      dup1\n        /* \"#utility.yul\":3949:3955   */\n      0x00\n        /* \"#utility.yul\":3957:3963   */\n      dup1\n        /* \"#utility.yul\":4006:4009   */\n      0xa0\n        /* \"#utility.yul\":3994:4003   */\n      dup8\n        /* \"#utility.yul\":3985:3992   */\n      dup10\n        /* \"#utility.yul\":3981:4004   */\n      sub\n        /* \"#utility.yul\":3977:4010   */\n      slt\n        /* \"#utility.yul\":3974:4094   */\n      iszero\n      tag_191\n      jumpi\n        /* \"#utility.yul\":4013:4092   */\n      tag_192\n      tag_108\n      jump\t// in\n    tag_192:\n        /* \"#utility.yul\":3974:4094   */\n    tag_191:\n        /* \"#utility.yul\":4133:4134   */\n      0x00\n        /* \"#utility.yul\":4158:4211   */\n      tag_193\n        /* \"#utility.yul\":4203:4210   */\n      dup10\n        /* \"#utility.yul\":4194:4200   */\n      dup3\n        /* \"#utility.yul\":4183:4192   */\n      dup11\n        /* \"#utility.yul\":4179:4201   */\n      add\n        /* \"#utility.yul\":4158:4211   */\n      tag_111\n      jump\t// in\n    tag_193:\n        /* \"#utility.yul\":4148:4211   */\n      swap7\n      pop\n        /* \"#utility.yul\":4104:4221   */\n      pop\n        /* \"#utility.yul\":4260:4262   */\n      0x20\n        /* \"#utility.yul\":4286:4337   */\n      tag_194\n        /* \"#utility.yul\":4329:4336   */\n      dup10\n        /* \"#utility.yul\":4320:4326   */\n      dup3\n        /* \"#utility.yul\":4309:4318   */\n      dup11\n        /* \"#utility.yul\":4305:4327   */\n      add\n        /* \"#utility.yul\":4286:4337   */\n      tag_113\n      jump\t// in\n    tag_194:\n        /* \"#utility.yul\":4276:4337   */\n      swap6\n      pop\n        /* \"#utility.yul\":4231:4347   */\n      pop\n        /* \"#utility.yul\":4386:4388   */\n      0x40\n        /* \"#utility.yul\":4412:4463   */\n      tag_195\n        /* \"#utility.yul\":4455:4462   */\n      dup10\n        /* \"#utility.yul\":4446:4452   */\n      dup3\n        /* \"#utility.yul\":4435:4444   */\n      dup11\n        /* \"#utility.yul\":4431:4453   */\n      add\n        /* \"#utility.yul\":4412:4463   */\n      tag_113\n      jump\t// in\n    tag_195:\n        /* \"#utility.yul\":4402:4463   */\n      swap5\n      pop\n        /* \"#utility.yul\":4357:4473   */\n      pop\n        /* \"#utility.yul\":4512:4514   */\n      0x60\n        /* \"#utility.yul\":4538:4591   */\n      tag_196\n        /* \"#utility.yul\":4583:4590   */\n      dup10\n        /* \"#utility.yul\":4574:4580   */\n      dup3\n        /* \"#utility.yul\":4563:4572   */\n      dup11\n        /* \"#utility.yul\":4559:4581   */\n      add\n        /* \"#utility.yul\":4538:4591   */\n      tag_115\n      jump\t// in\n    tag_196:\n        /* \"#utility.yul\":4528:4591   */\n      swap4\n      pop\n        /* \"#utility.yul\":4483:4601   */\n      pop\n        /* \"#utility.yul\":4668:4671   */\n      0x80\n        /* \"#utility.yul\":4657:4666   */\n      dup8\n        /* \"#utility.yul\":4653:4672   */\n      add\n        /* \"#utility.yul\":4640:4673   */\n      calldataload\n        /* \"#utility.yul\":4700:4718   */\n      0xffffffffffffffff\n        /* \"#utility.yul\":4692:4698   */\n      dup2\n        /* \"#utility.yul\":4689:4719   */\n      gt\n        /* \"#utility.yul\":4686:4803   */\n      iszero\n      tag_197\n      jumpi\n        /* \"#utility.yul\":4722:4801   */\n      tag_198\n      tag_109\n      jump\t// in\n    tag_198:\n        /* \"#utility.yul\":4686:4803   */\n    tag_197:\n        /* \"#utility.yul\":4835:4899   */\n      tag_199\n        /* \"#utility.yul\":4891:4898   */\n      dup10\n        /* \"#utility.yul\":4882:4888   */\n      dup3\n        /* \"#utility.yul\":4871:4880   */\n      dup11\n        /* \"#utility.yul\":4867:4889   */\n      add\n        /* \"#utility.yul\":4835:4899   */\n      tag_119\n      jump\t// in\n    tag_199:\n        /* \"#utility.yul\":4817:4899   */\n      swap3\n      pop\n      swap3\n      pop\n        /* \"#utility.yul\":4611:4909   */\n      pop\n        /* \"#utility.yul\":3815:4916   */\n      swap3\n      swap6\n      pop\n      swap3\n      swap6\n      pop\n      swap3\n      swap6\n      jump\t// out\n        /* \"#utility.yul\":4922:4999   */\n    tag_120:\n        /* \"#utility.yul\":4959:4966   */\n      0x00\n        /* \"#utility.yul\":4988:4993   */\n      dup2\n        /* \"#utility.yul\":4977:4993   */\n      swap1\n      pop\n        /* \"#utility.yul\":4922:4999   */\n      swap2\n      swap1\n      pop\n      jump\t// out\n        /* \"#utility.yul\":5005:5123   */\n    tag_121:\n        /* \"#utility.yul\":5092:5116   */\n      tag_202\n        /* \"#utility.yul\":5110:5115   */\n      dup2\n        /* \"#utility.yul\":5092:5116   */\n      tag_120\n      jump\t// in\n    tag_202:\n        /* \"#utility.yul\":5087:5090   */\n      dup3\n        /* \"#utility.yul\":5080:5117   */\n      mstore\n        /* \"#utility.yul\":5005:5123   */\n      pop\n      pop\n      jump\t// out\n        /* \"#utility.yul\":5129:5461   */\n    tag_28:\n        /* \"#utility.yul\":5250:5254   */\n      0x00\n        /* \"#utility.yul\":5288:5290   */\n      0x40\n        /* \"#utility.yul\":5277:5286   */\n      dup3\n        /* \"#utility.yul\":5273:5291   */\n      add\n        /* \"#utility.yul\":5265:5291   */\n      swap1\n      pop\n        /* \"#utility.yul\":5301:5372   */\n      tag_204\n        /* \"#utility.yul\":5369:5370   */\n      0x00\n        /* \"#utility.yul\":5358:5367   */\n      dup4\n        /* \"#utility.yul\":5354:5371   */\n      add\n        /* \"#utility.yul\":5345:5351   */\n      dup6\n        /* \"#utility.yul\":5301:5372   */\n      tag_121\n      jump\t// in\n    tag_204:\n        /* \"#utility.yul\":5382:5454   */\n      tag_205\n        /* \"#utility.yul\":5450:5452   */\n      0x20\n        /* \"#utility.yul\":5439:5448   */\n      dup4\n        /* \"#utility.yul\":5435:5453   */\n      add\n        /* \"#utility.yul\":5426:5432   */\n      dup5\n        /* \"#utility.yul\":5382:5454   */\n      tag_121\n      jump\t// in\n    tag_205:\n        /* \"#utility.yul\":5129:5461   */\n      swap4\n      swap3\n      pop\n      pop\n      pop\n      jump\t// out\n        /* \"#utility.yul\":5467:5544   */\n    tag_122:\n        /* \"#utility.yul\":5504:5511   */\n      0x00\n        /* \"#utility.yul\":5533:5538   */\n      dup2\n        /* \"#utility.yul\":5522:5538   */\n      swap1\n      pop\n        /* \"#utility.yul\":5467:5544   */\n      swap2\n      swap1\n      pop\n      jump\t// out\n        /* \"#utility.yul\":5550:5672   */\n    tag_123:\n        /* \"#utility.yul\":5623:5647   */\n      tag_208\n        /* \"#utility.yul\":5641:5646   */\n      dup2\n        /* \"#utility.yul\":5623:5647   */\n      tag_122\n      jump\t// in\n    tag_208:\n        /* \"#utility.yul\":5616:5621   */\n      dup2\n        /* \"#utility.yul\":5613:5648   */\n      eq\n        /* \"#utility.yul\":5603:5666   */\n      tag_209\n      jumpi\n        /* \"#utility.yul\":5662:5663   */\n      0x00\n        /* \"#utility.yul\":5659:5660   */\n      dup1\n        /* \"#utility.yul\":5652:5664   */\n      revert\n        /* \"#utility.yul\":5603:5666   */\n    tag_209:\n        /* \"#utility.yul\":5550:5672   */\n      pop\n      jump\t// out\n        /* \"#utility.yul\":5678:5817   */\n    tag_124:\n        /* \"#utility.yul\":5724:5729   */\n      0x00\n        /* \"#utility.yul\":5762:5768   */\n      dup2\n        /* \"#utility.yul\":5749:5769   */\n      calldataload\n        /* \"#utility.yul\":5740:5769   */\n      swap1\n      pop\n        /* \"#utility.yul\":5778:5811   */\n      tag_211\n        /* \"#utility.yul\":5805:5810   */\n      dup2\n        /* \"#utility.yul\":5778:5811   */\n      tag_123\n      jump\t// in\n    tag_211:\n        /* \"#utility.yul\":5678:5817   */\n      swap3\n      swap2\n      pop\n      pop\n      jump\t// out\n        /* \"#utility.yul\":5823:6152   */\n    tag_31:\n        /* \"#utility.yul\":5882:5888   */\n      0x00\n        /* \"#utility.yul\":5931:5933   */\n      0x20\n        /* \"#utility.yul\":5919:5928   */\n      dup3\n        /* \"#utility.yul\":5910:5917   */\n      dup5\n        /* \"#utility.yul\":5906:5929   */\n      sub\n        /* \"#utility.yul\":5902:5934   */\n      slt\n        /* \"#utility.yul\":5899:6018   */\n      iszero\n      tag_213\n      jumpi\n        /* \"#utility.yul\":5937:6016   */\n      tag_214\n      tag_108\n      jump\t// in\n    tag_214:\n        /* \"#utility.yul\":5899:6018   */\n    tag_213:\n        /* \"#utility.yul\":6057:6058   */\n      0x00\n        /* \"#utility.yul\":6082:6135   */\n      tag_215\n        /* \"#utility.yul\":6127:6134   */\n      dup5\n        /* \"#utility.yul\":6118:6124   */\n      dup3\n        /* \"#utility.yul\":6107:6116   */\n      dup6\n        /* \"#utility.yul\":6103:6125   */\n      add\n        /* \"#utility.yul\":6082:6135   */\n      tag_124\n      jump\t// in\n    tag_215:\n        /* \"#utility.yul\":6072:6135   */\n      swap2\n      pop\n        /* \"#utility.yul\":6028:6145   */\n      pop\n        /* \"#utility.yul\":5823:6152   */\n      swap3\n      swap2\n      pop\n      pop\n      jump\t// out\n        /* \"#utility.yul\":6158:6483   */\n    tag_39:\n        /* \"#utility.yul\":6215:6221   */\n      0x00\n        /* \"#utility.yul\":6264:6266   */\n      0x20\n        /* \"#utility.yul\":6252:6261   */\n      dup3\n        /* \"#utility.yul\":6243:6250   */\n      dup5\n        /* \"#utility.yul\":6239:6262   */\n      sub\n        /* \"#utility.yul\":6235:6267   */\n      slt\n        /* \"#utility.yul\":6232:6351   */\n      iszero\n      tag_217\n      jumpi\n        /* \"#utility.yul\":6270:6349   */\n      tag_218\n      tag_108\n      jump\t// in\n    tag_218:\n        /* \"#utility.yul\":6232:6351   */\n    tag_217:\n        /* \"#utility.yul\":6390:6391   */\n      0x00\n        /* \"#utility.yul\":6415:6466   */\n      tag_219\n        /* \"#utility.yul\":6458:6465   */\n      dup5\n        /* \"#utility.yul\":6449:6455   */\n      dup3\n        /* \"#utility.yul\":6438:6447   */\n      dup6\n        /* \"#utility.yul\":6434:6456   */\n      add\n        /* \"#utility.yul\":6415:6466   */\n      tag_113\n      jump\t// in\n    tag_219:\n        /* \"#utility.yul\":6405:6466   */\n      swap2\n      pop\n        /* \"#utility.yul\":6361:6476   */\n      pop\n        /* \"#utility.yul\":6158:6483   */\n      swap3\n      swap2\n      pop\n      pop\n      jump\t// out\n        /* \"#utility.yul\":6489:6579   */\n    tag_125:\n        /* \"#utility.yul\":6523:6530   */\n      0x00\n        /* \"#utility.yul\":6566:6571   */\n      dup2\n        /* \"#utility.yul\":6559:6572   */\n      iszero\n        /* \"#utility.yul\":6552:6573   */\n      iszero\n        /* \"#utility.yul\":6541:6573   */\n      swap1\n      pop\n        /* \"#utility.yul\":6489:6579   */\n      swap2\n      swap1\n      pop\n      jump\t// out\n        /* \"#utility.yul\":6585:6694   */\n    tag_126:\n        /* \"#utility.yul\":6666:6687   */\n      tag_222\n        /* \"#utility.yul\":6681:6686   */\n      dup2\n        /* \"#utility.yul\":6666:6687   */\n      tag_125\n      jump\t// in\n    tag_222:\n        /* \"#utility.yul\":6661:6664   */\n      dup3\n        /* \"#utility.yul\":6654:6688   */\n      mstore\n        /* \"#utility.yul\":6585:6694   */\n      pop\n      pop\n      jump\t// out\n        /* \"#utility.yul\":6700:7020   */\n    tag_42:\n        /* \"#utility.yul\":6815:6819   */\n      0x00\n        /* \"#utility.yul\":6853:6855   */\n      0x40\n        /* \"#utility.yul\":6842:6851   */\n      dup3\n        /* \"#utility.yul\":6838:6856   */\n      add\n        /* \"#utility.yul\":6830:6856   */\n      swap1\n      pop\n        /* \"#utility.yul\":6866:6931   */\n      tag_224\n        /* \"#utility.yul\":6928:6929   */\n      0x00\n        /* \"#utility.yul\":6917:6926   */\n      dup4\n        /* \"#utility.yul\":6913:6930   */\n      add\n        /* \"#utility.yul\":6904:6910   */\n      dup6\n        /* \"#utility.yul\":6866:6931   */\n      tag_126\n      jump\t// in\n    tag_224:\n        /* \"#utility.yul\":6941:7013   */\n      tag_225\n        /* \"#utility.yul\":7009:7011   */\n      0x20\n        /* \"#utility.yul\":6998:7007   */\n      dup4\n        /* \"#utility.yul\":6994:7012   */\n      add\n        /* \"#utility.yul\":6985:6991   */\n      dup5\n        /* \"#utility.yul\":6941:7013   */\n      tag_103\n      jump\t// in\n    tag_225:\n        /* \"#utility.yul\":6700:7020   */\n      swap4\n      swap3\n      pop\n      pop\n      pop\n      jump\t// out\n        /* \"#utility.yul\":7026:7206   */\n    tag_127:\n        /* \"#utility.yul\":7074:7151   */\n      0x4e487b7100000000000000000000000000000000000000000000000000000000\n        /* \"#utility.yul\":7071:7072   */\n      0x00\n        /* \"#utility.yul\":7064:7152   */\n      mstore\n        /* \"#utility.yul\":7171:7175   */\n      0x11\n        /* \"#utility.yul\":7168:7169   */\n      0x04\n        /* \"#utility.yul\":7161:7176   */\n      mstore\n        /* \"#utility.yul\":7195:7199   */\n      0x24\n        /* \"#utility.yul\":7192:7193   */\n      0x00\n        /* \"#utility.yul\":7185:7200   */\n      revert\n        /* \"#utility.yul\":7212:7438   */\n    tag_47:\n        /* \"#utility.yul\":7246:7249   */\n      0x00\n        /* \"#utility.yul\":7269:7291   */\n      tag_228\n        /* \"#utility.yul\":7285:7290   */\n      dup3\n        /* \"#utility.yul\":7269:7291   */\n      tag_105\n      jump\t// in\n    tag_228:\n        /* \"#utility.yul\":7260:7291   */\n      swap2\n      pop\n        /* \"#utility.yul\":7313:7379   */\n      0xffffffffffffffffffffffffffffffffffffffffffffffffffffffffff800000\n        /* \"#utility.yul\":7306:7311   */\n      dup3\n        /* \"#utility.yul\":7303:7380   */\n      sub\n        /* \"#utility.yul\":7300:7403   */\n      tag_229\n      jumpi\n        /* \"#utility.yul\":7383:7401   */\n      tag_230\n      tag_127\n      jump\t// in\n    tag_230:\n        /* \"#utility.yul\":7300:7403   */\n    tag_229:\n        /* \"#utility.yul\":7426:7431   */\n      dup2\n        /* \"#utility.yul\":7423:7424   */\n      0x00\n        /* \"#utility.yul\":7419:7432   */\n      sub\n        /* \"#utility.yul\":7412:7432   */\n      swap1\n      pop\n        /* \"#utility.yul\":7212:7438   */\n      swap2\n      swap1\n      pop\n      jump\t// out\n        /* \"#utility.yul\":7444:7612   */\n    tag_128:\n        /* \"#utility.yul\":7527:7538   */\n      0x00\n        /* \"#utility.yul\":7561:7567   */\n      dup3\n        /* \"#utility.yul\":7556:7559   */\n      dup3\n        /* \"#utility.yul\":7549:7568   */\n      mstore\n        /* \"#utility.yul\":7601:7605   */\n      0x20\n        /* \"#utility.yul\":7596:7599   */\n      dup3\n        /* \"#utility.yul\":7592:7606   */\n      add\n        /* \"#utility.yul\":7577:7606   */\n      swap1\n      pop\n        /* \"#utility.yul\":7444:7612   */\n      swap3\n      swap2\n      pop\n      pop\n      jump\t// out\n        /* \"#utility.yul\":7618:7766   */\n    tag_129:\n        /* \"#utility.yul\":7716:7722   */\n      dup3\n        /* \"#utility.yul\":7711:7714   */\n      dup2\n        /* \"#utility.yul\":7706:7709   */\n      dup4\n        /* \"#utility.yul\":7693:7723   */\n      calldatacopy\n        /* \"#utility.yul\":7757:7758   */\n      0x00\n        /* \"#utility.yul\":7748:7754   */\n      dup4\n        /* \"#utility.yul\":7743:7746   */\n      dup4\n        /* \"#utility.yul\":7739:7755   */\n      add\n        /* \"#utility.yul\":7732:7759   */\n      mstore\n        /* \"#utility.yul\":7618:7766   */\n      pop\n      pop\n      pop\n      jump\t// out\n        /* \"#utility.yul\":7772:7874   */\n    tag_130:\n        /* \"#utility.yul\":7813:7819   */\n      0x00\n        /* \"#utility.yul\":7864:7866   */\n      0x1f\n        /* \"#utility.yul\":7860:7867   */\n      not\n        /* \"#utility.yul\":7855:7857   */\n      0x1f\n        /* \"#utility.yul\":7848:7853   */\n      dup4\n        /* \"#utility.yul\":7844:7858   */\n      add\n        /* \"#utility.yul\":7840:7868   */\n      and\n        /* \"#utility.yul\":7830:7868   */\n      swap1\n      pop\n        /* \"#utility.yul\":7772:7874   */\n      swap2\n      swap1\n      pop\n      jump\t// out\n        /* \"#utility.yul\":7902:8216   */\n    tag_131:\n        /* \"#utility.yul\":7998:8001   */\n      0x00\n        /* \"#utility.yul\":8019:8089   */\n      tag_235\n        /* \"#utility.yul\":8082:8088   */\n      dup4\n        /* \"#utility.yul\":8077:8080   */\n      dup6\n        /* \"#utility.yul\":8019:8089   */\n      tag_128\n      jump\t// in\n    tag_235:\n        /* \"#utility.yul\":8012:8089   */\n      swap4\n      pop\n        /* \"#utility.yul\":8099:8155   */\n      tag_236\n        /* \"#utility.yul\":8148:8154   */\n      dup4\n        /* \"#utility.yul\":8143:8146   */\n      dup6\n        /* \"#utility.yul\":8136:8141   */\n      dup5\n        /* \"#utility.yul\":8099:8155   */\n      tag_129\n      jump\t// in\n    tag_236:\n        /* \"#utility.yul\":8180:8209   */\n      tag_237\n        /* \"#utility.yul\":8202:8208   */\n      dup4\n        /* \"#utility.yul\":8180:8209   */\n      tag_130\n      jump\t// in\n    tag_237:\n        /* \"#utility.yul\":8175:8178   */\n      dup5\n        /* \"#utility.yul\":8171:8210   */\n      add\n        /* \"#utility.yul\":8164:8210   */\n      swap1\n      pop\n        /* \"#utility.yul\":7902:8216   */\n      swap4\n      swap3\n      pop\n      pop\n      pop\n      jump\t// out\n        /* \"#utility.yul\":8222:8771   */\n    tag_64:\n        /* \"#utility.yul\":8399:8403   */\n      0x00\n        /* \"#utility.yul\":8437:8439   */\n      0x60\n        /* \"#utility.yul\":8426:8435   */\n      dup3\n        /* \"#utility.yul\":8422:8440   */\n      add\n        /* \"#utility.yul\":8414:8440   */\n      swap1\n      pop\n        /* \"#utility.yul\":8450:8521   */\n      tag_239\n        /* \"#utility.yul\":8518:8519   */\n      0x00\n        /* \"#utility.yul\":8507:8516   */\n      dup4\n        /* \"#utility.yul\":8503:8520   */\n      add\n        /* \"#utility.yul\":8494:8500   */\n      dup8\n        /* \"#utility.yul\":8450:8521   */\n      tag_121\n      jump\t// in\n    tag_239:\n        /* \"#utility.yul\":8531:8603   */\n      tag_240\n        /* \"#utility.yul\":8599:8601   */\n      0x20\n        /* \"#utility.yul\":8588:8597   */\n      dup4\n        /* \"#utility.yul\":8584:8602   */\n      add\n        /* \"#utility.yul\":8575:8581   */\n      dup7\n        /* \"#utility.yul\":8531:8603   */\n      tag_121\n      jump\t// in\n    tag_240:\n        /* \"#utility.yul\":8650:8659   */\n      dup2\n        /* \"#utility.yul\":8644:8648   */\n      dup2\n        /* \"#utility.yul\":8640:8660   */\n      sub\n        /* \"#utility.yul\":8635:8637   */\n      0x40\n        /* \"#utility.yul\":8624:8633   */\n      dup4\n        /* \"#utility.yul\":8620:8638   */\n      add\n        /* \"#utility.yul\":8613:8661   */\n      mstore\n        /* \"#utility.yul\":8678:8764   */\n      tag_241\n        /* \"#utility.yul\":8759:8763   */\n      dup2\n        /* \"#utility.yul\":8750:8756   */\n      dup5\n        /* \"#utility.yul\":8742:8748   */\n      dup7\n        /* \"#utility.yul\":8678:8764   */\n      tag_131\n      jump\t// in\n    tag_241:\n        /* \"#utility.yul\":8670:8764   */\n      swap1\n      pop\n        /* \"#utility.yul\":8222:8771   */\n      swap6\n      swap5\n      pop\n      pop\n      pop\n      pop\n      pop\n      jump\t// out\n        /* \"#utility.yul\":8777:8968   */\n    tag_71:\n        /* \"#utility.yul\":8817:8820   */\n      0x00\n        /* \"#utility.yul\":8836:8856   */\n      tag_243\n        /* \"#utility.yul\":8854:8855   */\n      dup3\n        /* \"#utility.yul\":8836:8856   */\n      tag_120\n      jump\t// in\n    tag_243:\n        /* \"#utility.yul\":8831:8856   */\n      swap2\n      pop\n        /* \"#utility.yul\":8870:8890   */\n      tag_244\n        /* \"#utility.yul\":8888:8889   */\n      dup4\n        /* \"#utility.yul\":8870:8890   */\n      tag_120\n      jump\t// in\n    tag_244:\n        /* \"#utility.yul\":8865:8890   */\n      swap3\n      pop\n        /* \"#utility.yul\":8913:8914   */\n      dup3\n        /* \"#utility.yul\":8910:8911   */\n      dup3\n        /* \"#utility.yul\":8906:8915   */\n      add\n        /* \"#utility.yul\":8899:8915   */\n      swap1\n      pop\n        /* \"#utility.yul\":8934:8937   */\n      dup1\n        /* \"#utility.yul\":8931:8932   */\n      dup3\n        /* \"#utility.yul\":8928:8938   */\n      gt\n        /* \"#utility.yul\":8925:8961   */\n      iszero\n      tag_245\n      jumpi\n        /* \"#utility.yul\":8941:8959   */\n      tag_246\n      tag_127\n      jump\t// in\n    tag_246:\n        /* \"#utility.yul\":8925:8961   */\n    tag_245:\n        /* \"#utility.yul\":8777:8968   */\n      swap3\n      swap2\n      pop\n      pop\n      jump\t// out\n        /* \"#utility.yul\":8974:9527   */\n    tag_78:\n        /* \"#utility.yul\":9151:9155   */\n      0x00\n        /* \"#utility.yul\":9189:9192   */\n      0x80\n        /* \"#utility.yul\":9178:9187   */\n      dup3\n        /* \"#utility.yul\":9174:9193   */\n      add\n        /* \"#utility.yul\":9166:9193   */\n      swap1\n      pop\n        /* \"#utility.yul\":9203:9274   */\n      tag_248\n        /* \"#utility.yul\":9271:9272   */\n      0x00\n        /* \"#utility.yul\":9260:9269   */\n      dup4\n        /* \"#utility.yul\":9256:9273   */\n      add\n        /* \"#utility.yul\":9247:9253   */\n      dup8\n        /* \"#utility.yul\":9203:9274   */\n      tag_101\n      jump\t// in\n    tag_248:\n        /* \"#utility.yul\":9284:9356   */\n      tag_249\n        /* \"#utility.yul\":9352:9354   */\n      0x20\n        /* \"#utility.yul\":9341:9350   */\n      dup4\n        /* \"#utility.yul\":9337:9355   */\n      add\n        /* \"#utility.yul\":9328:9334   */\n      dup7\n        /* \"#utility.yul\":9284:9356   */\n      tag_103\n      jump\t// in\n    tag_249:\n        /* \"#utility.yul\":9366:9438   */\n      tag_250\n        /* \"#utility.yul\":9434:9436   */\n      0x40\n        /* \"#utility.yul\":9423:9432   */\n      dup4\n        /* \"#utility.yul\":9419:9437   */\n      add\n        /* \"#utility.yul\":9410:9416   */\n      dup6\n        /* \"#utility.yul\":9366:9438   */\n      tag_121\n      jump\t// in\n    tag_250:\n        /* \"#utility.yul\":9448:9520   */\n      tag_251\n        /* \"#utility.yul\":9516:9518   */\n      0x60\n        /* \"#utility.yul\":9505:9514   */\n      dup4\n        /* \"#utility.yul\":9501:9519   */\n      add\n        /* \"#utility.yul\":9492:9498   */\n      dup5\n        /* \"#utility.yul\":9448:9520   */\n      tag_121\n      jump\t// in\n    tag_251:\n        /* \"#utility.yul\":8974:9527   */\n      swap6\n      swap5\n      pop\n      pop\n      pop\n      pop\n      pop\n      jump\t// out\n        /* \"#utility.yul\":9533:9757   */\n    tag_81:\n        /* \"#utility.yul\":9573:9576   */\n      0x00\n        /* \"#utility.yul\":9592:9612   */\n      tag_253\n        /* \"#utility.yul\":9610:9611   */\n      dup3\n        /* \"#utility.yul\":9592:9612   */\n      tag_102\n      jump\t// in\n    tag_253:\n        /* \"#utility.yul\":9587:9612   */\n      swap2\n      pop\n        /* \"#utility.yul\":9626:9646   */\n      tag_254\n        /* \"#utility.yul\":9644:9645   */\n      dup4\n        /* \"#utility.yul\":9626:9646   */\n      tag_102\n      jump\t// in\n    tag_254:\n        /* \"#utility.yul\":9621:9646   */\n      swap3\n      pop\n        /* \"#utility.yul\":9669:9670   */\n      dup3\n        /* \"#utility.yul\":9666:9667   */\n      dup3\n        /* \"#utility.yul\":9662:9671   */\n      add\n        /* \"#utility.yul\":9655:9671   */\n      swap1\n      pop\n        /* \"#utility.yul\":9692:9726   */\n      0xffffffffffffffffffffffffffffffff\n        /* \"#utility.yul\":9687:9690   */\n      dup2\n        /* \"#utility.yul\":9684:9727   */\n      gt\n        /* \"#utility.yul\":9681:9750   */\n      iszero\n      tag_255\n      jumpi\n        /* \"#utility.yul\":9730:9748   */\n      tag_256\n      tag_127\n      jump\t// in\n    tag_256:\n        /* \"#utility.yul\":9681:9750   */\n    tag_255:\n        /* \"#utility.yul\":9533:9757   */\n      swap3\n      swap2\n      pop\n      pop\n      jump\t// out\n        /* \"#utility.yul\":9763:9857   */\n    tag_132:\n        /* \"#utility.yul\":9796:9804   */\n      0x00\n        /* \"#utility.yul\":9844:9849   */\n      dup2\n        /* \"#utility.yul\":9840:9842   */\n      0x60\n        /* \"#utility.yul\":9836:9850   */\n      shl\n        /* \"#utility.yul\":9815:9850   */\n      swap1\n      pop\n        /* \"#utility.yul\":9763:9857   */\n      swap2\n      swap1\n      pop\n      jump\t// out\n        /* \"#utility.yul\":9863:9957   */\n    tag_133:\n        /* \"#utility.yul\":9902:9909   */\n      0x00\n        /* \"#utility.yul\":9931:9951   */\n      tag_259\n        /* \"#utility.yul\":9945:9950   */\n      dup3\n        /* \"#utility.yul\":9931:9951   */\n      tag_132\n      jump\t// in\n    tag_259:\n        /* \"#utility.yul\":9920:9951   */\n      swap1\n      pop\n        /* \"#utility.yul\":9863:9957   */\n      swap2\n      swap1\n      pop\n      jump\t// out\n        /* \"#utility.yul\":9963:10063   */\n    tag_134:\n        /* \"#utility.yul\":10002:10009   */\n      0x00\n        /* \"#utility.yul\":10031:10057   */\n      tag_261\n        /* \"#utility.yul\":10051:10056   */\n      dup3\n        /* \"#utility.yul\":10031:10057   */\n      tag_133\n      jump\t// in\n    tag_261:\n        /* \"#utility.yul\":10020:10057   */\n      swap1\n      pop\n        /* \"#utility.yul\":9963:10063   */\n      swap2\n      swap1\n      pop\n      jump\t// out\n        /* \"#utility.yul\":10069:10226   */\n    tag_135:\n        /* \"#utility.yul\":10174:10219   */\n      tag_263\n        /* \"#utility.yul\":10194:10218   */\n      tag_264\n        /* \"#utility.yul\":10212:10217   */\n      dup3\n        /* \"#utility.yul\":10194:10218   */\n      tag_100\n      jump\t// in\n    tag_264:\n        /* \"#utility.yul\":10174:10219   */\n      tag_134\n      jump\t// in\n    tag_263:\n        /* \"#utility.yul\":10169:10172   */\n      dup3\n        /* \"#utility.yul\":10162:10220   */\n      mstore\n        /* \"#utility.yul\":10069:10226   */\n      pop\n      pop\n      jump\t// out\n        /* \"#utility.yul\":10232:10328   */\n    tag_136:\n        /* \"#utility.yul\":10266:10274   */\n      0x00\n        /* \"#utility.yul\":10315:10320   */\n      dup2\n        /* \"#utility.yul\":10310:10313   */\n      0xe8\n        /* \"#utility.yul\":10306:10321   */\n      shl\n        /* \"#utility.yul\":10285:10321   */\n      swap1\n      pop\n        /* \"#utility.yul\":10232:10328   */\n      swap2\n      swap1\n      pop\n      jump\t// out\n        /* \"#utility.yul\":10334:10427   */\n    tag_137:\n        /* \"#utility.yul\":10371:10378   */\n      0x00\n        /* \"#utility.yul\":10400:10421   */\n      tag_267\n        /* \"#utility.yul\":10415:10420   */\n      dup3\n        /* \"#utility.yul\":10400:10421   */\n      tag_136\n      jump\t// in\n    tag_267:\n        /* \"#utility.yul\":10389:10421   */\n      swap1\n      pop\n        /* \"#utility.yul\":10334:10427   */\n      swap2\n      swap1\n      pop\n      jump\t// out\n        /* \"#utility.yul\":10433:10582   */\n    tag_138:\n        /* \"#utility.yul\":10534:10575   */\n      tag_269\n        /* \"#utility.yul\":10552:10574   */\n      tag_270\n        /* \"#utility.yul\":10568:10573   */\n      dup3\n        /* \"#utility.yul\":10552:10574   */\n      tag_105\n      jump\t// in\n    tag_270:\n        /* \"#utility.yul\":10534:10575   */\n      tag_137\n      jump\t// in\n    tag_269:\n        /* \"#utility.yul\":10529:10532   */\n      dup3\n        /* \"#utility.yul\":10522:10576   */\n      mstore\n        /* \"#utility.yul\":10433:10582   */\n      pop\n      pop\n      jump\t// out\n        /* \"#utility.yul\":10588:11108   */\n    tag_85:\n        /* \"#utility.yul\":10748:10751   */\n      0x00\n        /* \"#utility.yul\":10763:10838   */\n      tag_272\n        /* \"#utility.yul\":10834:10837   */\n      dup3\n        /* \"#utility.yul\":10825:10831   */\n      dup7\n        /* \"#utility.yul\":10763:10838   */\n      tag_135\n      jump\t// in\n    tag_272:\n        /* \"#utility.yul\":10863:10865   */\n      0x14\n        /* \"#utility.yul\":10858:10861   */\n      dup3\n        /* \"#utility.yul\":10854:10866   */\n      add\n        /* \"#utility.yul\":10847:10866   */\n      swap2\n      pop\n        /* \"#utility.yul\":10876:10947   */\n      tag_273\n        /* \"#utility.yul\":10943:10946   */\n      dup3\n        /* \"#utility.yul\":10934:10940   */\n      dup6\n        /* \"#utility.yul\":10876:10947   */\n      tag_138\n      jump\t// in\n    tag_273:\n        /* \"#utility.yul\":10972:10973   */\n      0x03\n        /* \"#utility.yul\":10967:10970   */\n      dup3\n        /* \"#utility.yul\":10963:10974   */\n      add\n        /* \"#utility.yul\":10956:10974   */\n      swap2\n      pop\n        /* \"#utility.yul\":10984:11055   */\n      tag_274\n        /* \"#utility.yul\":11051:11054   */\n      dup3\n        /* \"#utility.yul\":11042:11048   */\n      dup5\n        /* \"#utility.yul\":10984:11055   */\n      tag_138\n      jump\t// in\n    tag_274:\n        /* \"#utility.yul\":11080:11081   */\n      0x03\n        /* \"#utility.yul\":11075:11078   */\n      dup3\n        /* \"#utility.yul\":11071:11082   */\n      add\n        /* \"#utility.yul\":11064:11082   */\n      swap2\n      pop\n        /* \"#utility.yul\":11099:11102   */\n      dup2\n        /* \"#utility.yul\":11092:11102   */\n      swap1\n      pop\n        /* \"#utility.yul\":10588:11108   */\n      swap5\n      swap4\n      pop\n      pop\n      pop\n      pop\n      jump\t// out\n        /* \"#utility.yul\":11114:11236   */\n    tag_139:\n        /* \"#utility.yul\":11187:11211   */\n      tag_276\n        /* \"#utility.yul\":11205:11210   */\n      dup2\n        /* \"#utility.yul\":11187:11211   */\n      tag_120\n      jump\t// in\n    tag_276:\n        /* \"#utility.yul\":11180:11185   */\n      dup2\n        /* \"#utility.yul\":11177:11212   */\n      eq\n        /* \"#utility.yul\":11167:11230   */\n      tag_277\n      jumpi\n        /* \"#utility.yul\":11226:11227   */\n      0x00\n        /* \"#utility.yul\":11223:11224   */\n      dup1\n        /* \"#utility.yul\":11216:11228   */\n      revert\n        /* \"#utility.yul\":11167:11230   */\n    tag_277:\n        /* \"#utility.yul\":11114:11236   */\n      pop\n      jump\t// out\n        /* \"#utility.yul\":11242:11385   */\n    tag_140:\n        /* \"#utility.yul\":11299:11304   */\n      0x00\n        /* \"#utility.yul\":11330:11336   */\n      dup2\n        /* \"#utility.yul\":11324:11337   */\n      mload\n        /* \"#utility.yul\":11315:11337   */\n      swap1\n      pop\n        /* \"#utility.yul\":11346:11379   */\n      tag_279\n        /* \"#utility.yul\":11373:11378   */\n      dup2\n        /* \"#utility.yul\":11346:11379   */\n      tag_139\n      jump\t// in\n    tag_279:\n        /* \"#utility.yul\":11242:11385   */\n      swap3\n      swap2\n      pop\n      pop\n      jump\t// out\n        /* \"#utility.yul\":11391:11742   */\n    tag_93:\n        /* \"#utility.yul\":11461:11467   */\n      0x00\n        /* \"#utility.yul\":11510:11512   */\n      0x20\n        /* \"#utility.yul\":11498:11507   */\n      dup3\n        /* \"#utility.yul\":11489:11496   */\n      dup5\n        /* \"#utility.yul\":11485:11508   */\n      sub\n        /* \"#utility.yul\":11481:11513   */\n      slt\n        /* \"#utility.yul\":11478:11597   */\n      iszero\n      tag_281\n      jumpi\n        /* \"#utility.yul\":11516:11595   */\n      tag_282\n      tag_108\n      jump\t// in\n    tag_282:\n        /* \"#utility.yul\":11478:11597   */\n    tag_281:\n        /* \"#utility.yul\":11636:11637   */\n      0x00\n        /* \"#utility.yul\":11661:11725   */\n      tag_283\n        /* \"#utility.yul\":11717:11724   */\n      dup5\n        /* \"#utility.yul\":11708:11714   */\n      dup3\n        /* \"#utility.yul\":11697:11706   */\n      dup6\n        /* \"#utility.yul\":11693:11715   */\n      add\n        /* \"#utility.yul\":11661:11725   */\n      tag_140\n      jump\t// in\n    tag_283:\n        /* \"#utility.yul\":11651:11725   */\n      swap2\n      pop\n        /* \"#utility.yul\":11607:11735   */\n      pop\n        /* \"#utility.yul\":11391:11742   */\n      swap3\n      swap2\n      pop\n      pop\n      jump\t// out\n\n    auxdata: 0xa26469706673582212202b523c20f5b37d297b005f1dc6cb9b7244585e01534f1fca68dc12d7c5a1f70e64736f6c634300081a0033\n}\n",
				"bytecode": {
					"linkReferences": {},
					"object": "60c060405234801561000f575f80fd5b50604051611160380380611160833981810160405281019061003191906101fd565b8373ffffffffffffffffffffffffffffffffffffffff1660808173ffffffffffffffffffffffffffffffffffffffff16815250508273ffffffffffffffffffffffffffffffffffffffff1660a08173ffffffffffffffffffffffffffffffffffffffff168152505060405180604001604052808373ffffffffffffffffffffffffffffffffffffffff1681526020018260020b8152505f80820151815f015f6101000a81548173ffffffffffffffffffffffffffffffffffffffff021916908373ffffffffffffffffffffffffffffffffffffffff1602179055506020820151815f0160146101000a81548162ffffff021916908360020b62ffffff16021790555090505050505050610261565b5f80fd5b5f73ffffffffffffffffffffffffffffffffffffffff82169050919050565b5f61016c82610143565b9050919050565b61017c81610162565b8114610186575f80fd5b50565b5f8151905061019781610173565b92915050565b6101a681610143565b81146101b0575f80fd5b50565b5f815190506101c18161019d565b92915050565b5f8160020b9050919050565b6101dc816101c7565b81146101e6575f80fd5b50565b5f815190506101f7816101d3565b92915050565b5f805f80608085870312156102155761021461013f565b5b5f61022287828801610189565b945050602061023387828801610189565b9350506040610244878288016101b3565b9250506060610255878288016101e9565b91505092959194509250565b60805160a051610ed06102905f395f818161053e01526107bf01525f818161018c01526107210152610ed05ff3fe608060405234801561000f575f80fd5b506004361061007b575f3560e01c80633c8a7d8d116100595780633c8a7d8d146100da578063514ea4bf1461010b578063d21220a71461013b578063f30dba93146101595761007b565b80630dfe16811461007f5780631a6865021461009d5780633850c7bd146100bb575b5f80fd5b61008761018a565b6040516100949190610899565b60405180910390f35b6100a56101ae565b6040516100b291906108dc565b60405180910390f35b6100c36101cf565b6040516100d192919061091f565b60405180910390f35b6100f460048036038101906100ef9190610a2d565b61020a565b604051610102929190610adb565b60405180910390f35b61012560048036038101906101209190610b35565b610507565b60405161013291906108dc565b60405180910390f35b61014361053c565b6040516101509190610899565b60405180910390f35b610173600480360381019061016e9190610b60565b610560565b604051610181929190610ba5565b60405180910390f35b7f000000000000000000000000000000000000000000000000000000000000000081565b60015f9054906101000a90046fffffffffffffffffffffffffffffffff1681565b5f805f015f9054906101000a900473ffffffffffffffffffffffffffffffffffffffff1690805f0160149054906101000a900460020b905082565b5f808560020b8760020b12158061024657507ffffffffffffffffffffffffffffffffffffffffffffffffffffffffffff2761860020b8760020b125b8061027f57507ffffffffffffffffffffffffffffffffffffffffffffffffffffffffffff2761861027690610bf9565b60020b8660020b135b156102b6576040517f064847d000000000000000000000000000000000000000000000000000000000815260040160405180910390fd5b5f856fffffffffffffffffffffffffffffffff1603610301576040517f1007454800000000000000000000000000000000000000000000000000000000815260040160405180910390fd5b610317878660026105a79092919063ffffffff16565b61032d868660026105a79092919063ffffffff16565b5f6103468989896003610669909392919063ffffffff16565b905061035b86826106ae90919063ffffffff16565b5f805f8511156103705761036d61071e565b91505b5f851115610383576103806107bc565b90505b3373ffffffffffffffffffffffffffffffffffffffff1663d348799786868a8a6040518563ffffffff1660e01b81526004016103c29493929190610c99565b5f604051808303815f87803b1580156103d9575f80fd5b505af11580156103eb573d5f803e3d5ffd5b505050505f8511801561040f575061040161071e565b858361040d9190610cd7565b115b15610446576040517f098fb56100000000000000000000000000000000000000000000000000000000815260040160405180910390fd5b5f8411801561046657506104586107bc565b84826104649190610cd7565b115b1561049d576040517f098fb56100000000000000000000000000000000000000000000000000000000815260040160405180910390fd5b8860020b8a60020b8c73ffffffffffffffffffffffffffffffffffffffff167f7a53080ba414158be7ec69b987b5fb7d07dee101fe85488f0853ae16239d0bde338c8a8a6040516104f19493929190610d0a565b60405180910390a4505050965096945050505050565b6003602052805f5260405f205f91509050805f015f9054906101000a90046fffffffffffffffffffffffffffffffff16905081565b7f000000000000000000000000000000000000000000000000000000000000000081565b6002602052805f5260405f205f91509050805f015f9054906101000a900460ff1690805f0160019054906101000a90046fffffffffffffffffffffffffffffffff16905082565b5f835f8460020b60020b81526020019081526020015f2090505f815f0160019054906101000a90046fffffffffffffffffffffffffffffffff1690505f83826105f09190610d4d565b90505f826fffffffffffffffffffffffffffffffff1603610627576001835f015f6101000a81548160ff0219169083151502179055505b80835f0160016101000a8154816fffffffffffffffffffffffffffffffff02191690836fffffffffffffffffffffffffffffffff160217905550505050505050565b5f845f85858560405160200161068193929190610e09565b6040516020818303038152906040528051906020012081526020019081526020015f209050949350505050565b5f825f015f9054906101000a90046fffffffffffffffffffffffffffffffff1690505f82826106dd9190610d4d565b905080845f015f6101000a8154816fffffffffffffffffffffffffffffffff02191690836fffffffffffffffffffffffffffffffff16021790555050505050565b5f7f000000000000000000000000000000000000000000000000000000000000000073ffffffffffffffffffffffffffffffffffffffff166370a08231306040518263ffffffff1660e01b81526004016107789190610899565b602060405180830381865afa158015610793573d5f803e3d5ffd5b505050506040513d601f19601f820116820180604052508101906107b79190610e6f565b905090565b5f7f000000000000000000000000000000000000000000000000000000000000000073ffffffffffffffffffffffffffffffffffffffff166370a08231306040518263ffffffff1660e01b81526004016108169190610899565b602060405180830381865afa158015610831573d5f803e3d5ffd5b505050506040513d601f19601f820116820180604052508101906108559190610e6f565b905090565b5f73ffffffffffffffffffffffffffffffffffffffff82169050919050565b5f6108838261085a565b9050919050565b61089381610879565b82525050565b5f6020820190506108ac5f83018461088a565b92915050565b5f6fffffffffffffffffffffffffffffffff82169050919050565b6108d6816108b2565b82525050565b5f6020820190506108ef5f8301846108cd565b92915050565b6108fe8161085a565b82525050565b5f8160020b9050919050565b61091981610904565b82525050565b5f6040820190506109325f8301856108f5565b61093f6020830184610910565b9392505050565b5f80fd5b5f80fd5b61095781610879565b8114610961575f80fd5b50565b5f813590506109728161094e565b92915050565b61098181610904565b811461098b575f80fd5b50565b5f8135905061099c81610978565b92915050565b6109ab816108b2565b81146109b5575f80fd5b50565b5f813590506109c6816109a2565b92915050565b5f80fd5b5f80fd5b5f80fd5b5f8083601f8401126109ed576109ec6109cc565b5b8235905067ffffffffffffffff811115610a0a57610a096109d0565b5b602083019150836001820283011115610a2657610a256109d4565b5b9250929050565b5f805f805f8060a08789031215610a4757610a46610946565b5b5f610a5489828a01610964565b9650506020610a6589828a0161098e565b9550506040610a7689828a0161098e565b9450506060610a8789828a016109b8565b935050608087013567ffffffffffffffff811115610aa857610aa761094a565b5b610ab489828a016109d8565b92509250509295509295509295565b5f819050919050565b610ad581610ac3565b82525050565b5f604082019050610aee5f830185610acc565b610afb6020830184610acc565b9392505050565b5f819050919050565b610b1481610b02565b8114610b1e575f80fd5b50565b5f81359050610b2f81610b0b565b92915050565b5f60208284031215610b4a57610b49610946565b5b5f610b5784828501610b21565b91505092915050565b5f60208284031215610b7557610b74610946565b5b5f610b828482850161098e565b91505092915050565b5f8115159050919050565b610b9f81610b8b565b82525050565b5f604082019050610bb85f830185610b96565b610bc560208301846108cd565b9392505050565b7f4e487b71000000000000000000000000000000000000000000000000000000005f52601160045260245ffd5b5f610c0382610904565b91507fffffffffffffffffffffffffffffffffffffffffffffffffffffffffff8000008203610c3557610c34610bcc565b5b815f039050919050565b5f82825260208201905092915050565b828183375f83830152505050565b5f601f19601f8301169050919050565b5f610c788385610c3f565b9350610c85838584610c4f565b610c8e83610c5d565b840190509392505050565b5f606082019050610cac5f830187610acc565b610cb96020830186610acc565b8181036040830152610ccc818486610c6d565b905095945050505050565b5f610ce182610ac3565b9150610cec83610ac3565b9250828201905080821115610d0457610d03610bcc565b5b92915050565b5f608082019050610d1d5f83018761088a565b610d2a60208301866108cd565b610d376040830185610acc565b610d446060830184610acc565b95945050505050565b5f610d57826108b2565b9150610d62836108b2565b925082820190506fffffffffffffffffffffffffffffffff811115610d8a57610d89610bcc565b5b92915050565b5f8160601b9050919050565b5f610da682610d90565b9050919050565b5f610db782610d9c565b9050919050565b610dcf610dca82610879565b610dad565b82525050565b5f8160e81b9050919050565b5f610deb82610dd5565b9050919050565b610e03610dfe82610904565b610de1565b82525050565b5f610e148286610dbe565b601482019150610e248285610df2565b600382019150610e348284610df2565b600382019150819050949350505050565b610e4e81610ac3565b8114610e58575f80fd5b50565b5f81519050610e6981610e45565b92915050565b5f60208284031215610e8457610e83610946565b5b5f610e9184828501610e5b565b9150509291505056fea26469706673582212202b523c20f5b37d297b005f1dc6cb9b7244585e01534f1fca68dc12d7c5a1f70e64736f6c634300081a0033",
					"opcodes": "PUSH1 0xC0 PUSH1 0x40 MSTORE CALLVALUE DUP1 ISZERO PUSH2 0xF JUMPI PUSH0 DUP1 REVERT JUMPDEST POP PUSH1 0x40 MLOAD PUSH2 0x1160 CODESIZE SUB DUP1 PUSH2 0x1160 DUP4 CODECOPY DUP2 DUP2 ADD PUSH1 0x40 MSTORE DUP2 ADD SWAP1 PUSH2 0x31 SWAP2 SWAP1 PUSH2 0x1FD JUMP JUMPDEST DUP4 PUSH20 0xFFFFFFFFFFFFFFFFFFFFFFFFFFFFFFFFFFFFFFFF AND PUSH1 0x80 DUP2 PUSH20 0xFFFFFFFFFFFFFFFFFFFFFFFFFFFFFFFFFFFFFFFF AND DUP2 MSTORE POP POP DUP3 PUSH20 0xFFFFFFFFFFFFFFFFFFFFFFFFFFFFFFFFFFFFFFFF AND PUSH1 0xA0 DUP2 PUSH20 0xFFFFFFFFFFFFFFFFFFFFFFFFFFFFFFFFFFFFFFFF AND DUP2 MSTORE POP POP PUSH1 0x40 MLOAD DUP1 PUSH1 0x40 ADD PUSH1 0x40 MSTORE DUP1 DUP4 PUSH20 0xFFFFFFFFFFFFFFFFFFFFFFFFFFFFFFFFFFFFFFFF AND DUP2 MSTORE PUSH1 0x20 ADD DUP3 PUSH1 0x2 SIGNEXTEND DUP2 MSTORE POP PUSH0 DUP1 DUP3 ADD MLOAD DUP2 PUSH0 ADD PUSH0 PUSH2 0x100 EXP DUP2 SLOAD DUP2 PUSH20 0xFFFFFFFFFFFFFFFFFFFFFFFFFFFFFFFFFFFFFFFF MUL NOT AND SWAP1 DUP4 PUSH20 0xFFFFFFFFFFFFFFFFFFFFFFFFFFFFFFFFFFFFFFFF AND MUL OR SWAP1 SSTORE POP PUSH1 0x20 DUP3 ADD MLOAD DUP2 PUSH0 ADD PUSH1 0x14 PUSH2 0x100 EXP DUP2 SLOAD DUP2 PUSH3 0xFFFFFF MUL NOT AND SWAP1 DUP4 PUSH1 0x2 SIGNEXTEND PUSH3 0xFFFFFF AND MUL OR SWAP1 SSTORE POP SWAP1 POP POP POP POP POP POP PUSH2 0x261 JUMP JUMPDEST PUSH0 DUP1 REVERT JUMPDEST PUSH0 PUSH20 0xFFFFFFFFFFFFFFFFFFFFFFFFFFFFFFFFFFFFFFFF DUP3 AND SWAP1 POP SWAP2 SWAP1 POP JUMP JUMPDEST PUSH0 PUSH2 0x16C DUP3 PUSH2 0x143 JUMP JUMPDEST SWAP1 POP SWAP2 SWAP1 POP JUMP JUMPDEST PUSH2 0x17C DUP2 PUSH2 0x162 JUMP JUMPDEST DUP2 EQ PUSH2 0x186 JUMPI PUSH0 DUP1 REVERT JUMPDEST POP JUMP JUMPDEST PUSH0 DUP2 MLOAD SWAP1 POP PUSH2 0x197 DUP2 PUSH2 0x173 JUMP JUMPDEST SWAP3 SWAP2 POP POP JUMP JUMPDEST PUSH2 0x1A6 DUP2 PUSH2 0x143 JUMP JUMPDEST DUP2 EQ PUSH2 0x1B0 JUMPI PUSH0 DUP1 REVERT JUMPDEST POP JUMP JUMPDEST PUSH0 DUP2 MLOAD SWAP1 POP PUSH2 0x1C1 DUP2 PUSH2 0x19D JUMP JUMPDEST SWAP3 SWAP2 POP POP JUMP JUMPDEST PUSH0 DUP2 PUSH1 0x2 SIGNEXTEND SWAP1 POP SWAP2 SWAP1 POP JUMP JUMPDEST PUSH2 0x1DC DUP2 PUSH2 0x1C7 JUMP JUMPDEST DUP2 EQ PUSH2 0x1E6 JUMPI PUSH0 DUP1 REVERT JUMPDEST POP JUMP JUMPDEST PUSH0 DUP2 MLOAD SWAP1 POP PUSH2 0x1F7 DUP2 PUSH2 0x1D3 JUMP JUMPDEST SWAP3 SWAP2 POP POP JUMP JUMPDEST PUSH0 DUP1 PUSH0 DUP1 PUSH1 0x80 DUP6 DUP8 SUB SLT ISZERO PUSH2 0x215 JUMPI PUSH2 0x214 PUSH2 0x13F JUMP JUMPDEST JUMPDEST PUSH0 PUSH2 0x222 DUP8 DUP3 DUP9 ADD PUSH2 0x189 JUMP JUMPDEST SWAP5 POP POP PUSH1 0x20 PUSH2 0x233 DUP8 DUP3 DUP9 ADD PUSH2 0x189 JUMP JUMPDEST SWAP4 POP POP PUSH1 0x40 PUSH2 0x244 DUP8 DUP3 DUP9 ADD PUSH2 0x1B3 JUMP JUMPDEST SWAP3 POP POP PUSH1 0x60 PUSH2 0x255 DUP8 DUP3 DUP9 ADD PUSH2 0x1E9 JUMP JUMPDEST SWAP2 POP POP SWAP3 SWAP6 SWAP2 SWAP5 POP SWAP3 POP JUMP JUMPDEST PUSH1 0x80 MLOAD PUSH1 0xA0 MLOAD PUSH2 0xED0 PUSH2 0x290 PUSH0 CODECOPY PUSH0 DUP2 DUP2 PUSH2 0x53E ADD MSTORE PUSH2 0x7BF ADD MSTORE PUSH0 DUP2 DUP2 PUSH2 0x18C ADD MSTORE PUSH2 0x721 ADD MSTORE PUSH2 0xED0 PUSH0 RETURN INVALID PUSH1 0x80 PUSH1 0x40 MSTORE CALLVALUE DUP1 ISZERO PUSH2 0xF JUMPI PUSH0 DUP1 REVERT JUMPDEST POP PUSH1 0x4 CALLDATASIZE LT PUSH2 0x7B JUMPI PUSH0 CALLDATALOAD PUSH1 0xE0 SHR DUP1 PUSH4 0x3C8A7D8D GT PUSH2 0x59 JUMPI DUP1 PUSH4 0x3C8A7D8D EQ PUSH2 0xDA JUMPI DUP1 PUSH4 0x514EA4BF EQ PUSH2 0x10B JUMPI DUP1 PUSH4 0xD21220A7 EQ PUSH2 0x13B JUMPI DUP1 PUSH4 0xF30DBA93 EQ PUSH2 0x159 JUMPI PUSH2 0x7B JUMP JUMPDEST DUP1 PUSH4 0xDFE1681 EQ PUSH2 0x7F JUMPI DUP1 PUSH4 0x1A686502 EQ PUSH2 0x9D JUMPI DUP1 PUSH4 0x3850C7BD EQ PUSH2 0xBB JUMPI JUMPDEST PUSH0 DUP1 REVERT JUMPDEST PUSH2 0x87 PUSH2 0x18A JUMP JUMPDEST PUSH1 0x40 MLOAD PUSH2 0x94 SWAP2 SWAP1 PUSH2 0x899 JUMP JUMPDEST PUSH1 0x40 MLOAD DUP1 SWAP2 SUB SWAP1 RETURN JUMPDEST PUSH2 0xA5 PUSH2 0x1AE JUMP JUMPDEST PUSH1 0x40 MLOAD PUSH2 0xB2 SWAP2 SWAP1 PUSH2 0x8DC JUMP JUMPDEST PUSH1 0x40 MLOAD DUP1 SWAP2 SUB SWAP1 RETURN JUMPDEST PUSH2 0xC3 PUSH2 0x1CF JUMP JUMPDEST PUSH1 0x40 MLOAD PUSH2 0xD1 SWAP3 SWAP2 SWAP1 PUSH2 0x91F JUMP JUMPDEST PUSH1 0x40 MLOAD DUP1 SWAP2 SUB SWAP1 RETURN JUMPDEST PUSH2 0xF4 PUSH1 0x4 DUP1 CALLDATASIZE SUB DUP2 ADD SWAP1 PUSH2 0xEF SWAP2 SWAP1 PUSH2 0xA2D JUMP JUMPDEST PUSH2 0x20A JUMP JUMPDEST PUSH1 0x40 MLOAD PUSH2 0x102 SWAP3 SWAP2 SWAP1 PUSH2 0xADB JUMP JUMPDEST PUSH1 0x40 MLOAD DUP1 SWAP2 SUB SWAP1 RETURN JUMPDEST PUSH2 0x125 PUSH1 0x4 DUP1 CALLDATASIZE SUB DUP2 ADD SWAP1 PUSH2 0x120 SWAP2 SWAP1 PUSH2 0xB35 JUMP JUMPDEST PUSH2 0x507 JUMP JUMPDEST PUSH1 0x40 MLOAD PUSH2 0x132 SWAP2 SWAP1 PUSH2 0x8DC JUMP JUMPDEST PUSH1 0x40 MLOAD DUP1 SWAP2 SUB SWAP1 RETURN JUMPDEST PUSH2 0x143 PUSH2 0x53C JUMP JUMPDEST PUSH1 0x40 MLOAD PUSH2 0x150 SWAP2 SWAP1 PUSH2 0x899 JUMP JUMPDEST PUSH1 0x40 MLOAD DUP1 SWAP2 SUB SWAP1 RETURN JUMPDEST PUSH2 0x173 PUSH1 0x4 DUP1 CALLDATASIZE SUB DUP2 ADD SWAP1 PUSH2 0x16E SWAP2 SWAP1 PUSH2 0xB60 JUMP JUMPDEST PUSH2 0x560 JUMP JUMPDEST PUSH1 0x40 MLOAD PUSH2 0x181 SWAP3 SWAP2 SWAP1 PUSH2 0xBA5 JUMP JUMPDEST PUSH1 0x40 MLOAD DUP1 SWAP2 SUB SWAP1 RETURN JUMPDEST PUSH32 0x0 DUP2 JUMP JUMPDEST PUSH1 0x1 PUSH0 SWAP1 SLOAD SWAP1 PUSH2 0x100 EXP SWAP1 DIV PUSH16 0xFFFFFFFFFFFFFFFFFFFFFFFFFFFFFFFF AND DUP2 JUMP JUMPDEST PUSH0 DUP1 PUSH0 ADD PUSH0 SWAP1 SLOAD SWAP1 PUSH2 0x100 EXP SWAP1 DIV PUSH20 0xFFFFFFFFFFFFFFFFFFFFFFFFFFFFFFFFFFFFFFFF AND SWAP1 DUP1 PUSH0 ADD PUSH1 0x14 SWAP1 SLOAD SWAP1 PUSH2 0x100 EXP SWAP1 DIV PUSH1 0x2 SIGNEXTEND SWAP1 POP DUP3 JUMP JUMPDEST PUSH0 DUP1 DUP6 PUSH1 0x2 SIGNEXTEND DUP8 PUSH1 0x2 SIGNEXTEND SLT ISZERO DUP1 PUSH2 0x246 JUMPI POP PUSH32 0xFFFFFFFFFFFFFFFFFFFFFFFFFFFFFFFFFFFFFFFFFFFFFFFFFFFFFFFFFFF27618 PUSH1 0x2 SIGNEXTEND DUP8 PUSH1 0x2 SIGNEXTEND SLT JUMPDEST DUP1 PUSH2 0x27F JUMPI POP PUSH32 0xFFFFFFFFFFFFFFFFFFFFFFFFFFFFFFFFFFFFFFFFFFFFFFFFFFFFFFFFFFF27618 PUSH2 0x276 SWAP1 PUSH2 0xBF9 JUMP JUMPDEST PUSH1 0x2 SIGNEXTEND DUP7 PUSH1 0x2 SIGNEXTEND SGT JUMPDEST ISZERO PUSH2 0x2B6 JUMPI PUSH1 0x40 MLOAD PUSH32 0x64847D000000000000000000000000000000000000000000000000000000000 DUP2 MSTORE PUSH1 0x4 ADD PUSH1 0x40 MLOAD DUP1 SWAP2 SUB SWAP1 REVERT JUMPDEST PUSH0 DUP6 PUSH16 0xFFFFFFFFFFFFFFFFFFFFFFFFFFFFFFFF AND SUB PUSH2 0x301 JUMPI PUSH1 0x40 MLOAD PUSH32 0x1007454800000000000000000000000000000000000000000000000000000000 DUP2 MSTORE PUSH1 0x4 ADD PUSH1 0x40 MLOAD DUP1 SWAP2 SUB SWAP1 REVERT JUMPDEST PUSH2 0x317 DUP8 DUP7 PUSH1 0x2 PUSH2 0x5A7 SWAP1 SWAP3 SWAP2 SWAP1 PUSH4 0xFFFFFFFF AND JUMP JUMPDEST PUSH2 0x32D DUP7 DUP7 PUSH1 0x2 PUSH2 0x5A7 SWAP1 SWAP3 SWAP2 SWAP1 PUSH4 0xFFFFFFFF AND JUMP JUMPDEST PUSH0 PUSH2 0x346 DUP10 DUP10 DUP10 PUSH1 0x3 PUSH2 0x669 SWAP1 SWAP4 SWAP3 SWAP2 SWAP1 PUSH4 0xFFFFFFFF AND JUMP JUMPDEST SWAP1 POP PUSH2 0x35B DUP7 DUP3 PUSH2 0x6AE SWAP1 SWAP2 SWAP1 PUSH4 0xFFFFFFFF AND JUMP JUMPDEST PUSH0 DUP1 PUSH0 DUP6 GT ISZERO PUSH2 0x370 JUMPI PUSH2 0x36D PUSH2 0x71E JUMP JUMPDEST SWAP2 POP JUMPDEST PUSH0 DUP6 GT ISZERO PUSH2 0x383 JUMPI PUSH2 0x380 PUSH2 0x7BC JUMP JUMPDEST SWAP1 POP JUMPDEST CALLER PUSH20 0xFFFFFFFFFFFFFFFFFFFFFFFFFFFFFFFFFFFFFFFF AND PUSH4 0xD3487997 DUP7 DUP7 DUP11 DUP11 PUSH1 0x40 MLOAD DUP6 PUSH4 0xFFFFFFFF AND PUSH1 0xE0 SHL DUP2 MSTORE PUSH1 0x4 ADD PUSH2 0x3C2 SWAP5 SWAP4 SWAP3 SWAP2 SWAP1 PUSH2 0xC99 JUMP JUMPDEST PUSH0 PUSH1 0x40 MLOAD DUP1 DUP4 SUB DUP2 PUSH0 DUP8 DUP1 EXTCODESIZE ISZERO DUP1 ISZERO PUSH2 0x3D9 JUMPI PUSH0 DUP1 REVERT JUMPDEST POP GAS CALL ISZERO DUP1 ISZERO PUSH2 0x3EB JUMPI RETURNDATASIZE PUSH0 DUP1 RETURNDATACOPY RETURNDATASIZE PUSH0 REVERT JUMPDEST POP POP POP POP PUSH0 DUP6 GT DUP1 ISZERO PUSH2 0x40F JUMPI POP PUSH2 0x401 PUSH2 0x71E JUMP JUMPDEST DUP6 DUP4 PUSH2 0x40D SWAP2 SWAP1 PUSH2 0xCD7 JUMP JUMPDEST GT JUMPDEST ISZERO PUSH2 0x446 JUMPI PUSH1 0x40 MLOAD PUSH32 0x98FB56100000000000000000000000000000000000000000000000000000000 DUP2 MSTORE PUSH1 0x4 ADD PUSH1 0x40 MLOAD DUP1 SWAP2 SUB SWAP1 REVERT JUMPDEST PUSH0 DUP5 GT DUP1 ISZERO PUSH2 0x466 JUMPI POP PUSH2 0x458 PUSH2 0x7BC JUMP JUMPDEST DUP5 DUP3 PUSH2 0x464 SWAP2 SWAP1 PUSH2 0xCD7 JUMP JUMPDEST GT JUMPDEST ISZERO PUSH2 0x49D JUMPI PUSH1 0x40 MLOAD PUSH32 0x98FB56100000000000000000000000000000000000000000000000000000000 DUP2 MSTORE PUSH1 0x4 ADD PUSH1 0x40 MLOAD DUP1 SWAP2 SUB SWAP1 REVERT JUMPDEST DUP9 PUSH1 0x2 SIGNEXTEND DUP11 PUSH1 0x2 SIGNEXTEND DUP13 PUSH20 0xFFFFFFFFFFFFFFFFFFFFFFFFFFFFFFFFFFFFFFFF AND PUSH32 0x7A53080BA414158BE7EC69B987B5FB7D07DEE101FE85488F0853AE16239D0BDE CALLER DUP13 DUP11 DUP11 PUSH1 0x40 MLOAD PUSH2 0x4F1 SWAP5 SWAP4 SWAP3 SWAP2 SWAP1 PUSH2 0xD0A JUMP JUMPDEST PUSH1 0x40 MLOAD DUP1 SWAP2 SUB SWAP1 LOG4 POP POP POP SWAP7 POP SWAP7 SWAP5 POP POP POP POP POP JUMP JUMPDEST PUSH1 0x3 PUSH1 0x20 MSTORE DUP1 PUSH0 MSTORE PUSH1 0x40 PUSH0 KECCAK256 PUSH0 SWAP2 POP SWAP1 POP DUP1 PUSH0 ADD PUSH0 SWAP1 SLOAD SWAP1 PUSH2 0x100 EXP SWAP1 DIV PUSH16 0xFFFFFFFFFFFFFFFFFFFFFFFFFFFFFFFF AND SWAP1 POP DUP2 JUMP JUMPDEST PUSH32 0x0 DUP2 JUMP JUMPDEST PUSH1 0x2 PUSH1 0x20 MSTORE DUP1 PUSH0 MSTORE PUSH1 0x40 PUSH0 KECCAK256 PUSH0 SWAP2 POP SWAP1 POP DUP1 PUSH0 ADD PUSH0 SWAP1 SLOAD SWAP1 PUSH2 0x100 EXP SWAP1 DIV PUSH1 0xFF AND SWAP1 DUP1 PUSH0 ADD PUSH1 0x1 SWAP1 SLOAD SWAP1 PUSH2 0x100 EXP SWAP1 DIV PUSH16 0xFFFFFFFFFFFFFFFFFFFFFFFFFFFFFFFF AND SWAP1 POP DUP3 JUMP JUMPDEST PUSH0 DUP4 PUSH0 DUP5 PUSH1 0x2 SIGNEXTEND PUSH1 0x2 SIGNEXTEND DUP2 MSTORE PUSH1 0x20 ADD SWAP1 DUP2 MSTORE PUSH1 0x20 ADD PUSH0 KECCAK256 SWAP1 POP PUSH0 DUP2 PUSH0 ADD PUSH1 0x1 SWAP1 SLOAD SWAP1 PUSH2 0x100 EXP SWAP1 DIV PUSH16 0xFFFFFFFFFFFFFFFFFFFFFFFFFFFFFFFF AND SWAP1 POP PUSH0 DUP4 DUP3 PUSH2 0x5F0 SWAP2 SWAP1 PUSH2 0xD4D JUMP JUMPDEST SWAP1 POP PUSH0 DUP3 PUSH16 0xFFFFFFFFFFFFFFFFFFFFFFFFFFFFFFFF AND SUB PUSH2 0x627 JUMPI PUSH1 0x1 DUP4 PUSH0 ADD PUSH0 PUSH2 0x100 EXP DUP2 SLOAD DUP2 PUSH1 0xFF MUL NOT AND SWAP1 DUP4 ISZERO ISZERO MUL OR SWAP1 SSTORE POP JUMPDEST DUP1 DUP4 PUSH0 ADD PUSH1 0x1 PUSH2 0x100 EXP DUP2 SLOAD DUP2 PUSH16 0xFFFFFFFFFFFFFFFFFFFFFFFFFFFFFFFF MUL NOT AND SWAP1 DUP4 PUSH16 0xFFFFFFFFFFFFFFFFFFFFFFFFFFFFFFFF AND MUL OR SWAP1 SSTORE POP POP POP POP POP POP POP JUMP JUMPDEST PUSH0 DUP5 PUSH0 DUP6 DUP6 DUP6 PUSH1 0x40 MLOAD PUSH1 0x20 ADD PUSH2 0x681 SWAP4 SWAP3 SWAP2 SWAP1 PUSH2 0xE09 JUMP JUMPDEST PUSH1 0x40 MLOAD PUSH1 0x20 DUP2 DUP4 SUB SUB DUP2 MSTORE SWAP1 PUSH1 0x40 MSTORE DUP1 MLOAD SWAP1 PUSH1 0x20 ADD KECCAK256 DUP2 MSTORE PUSH1 0x20 ADD SWAP1 DUP2 MSTORE PUSH1 0x20 ADD PUSH0 KECCAK256 SWAP1 POP SWAP5 SWAP4 POP POP POP POP JUMP JUMPDEST PUSH0 DUP3 PUSH0 ADD PUSH0 SWAP1 SLOAD SWAP1 PUSH2 0x100 EXP SWAP1 DIV PUSH16 0xFFFFFFFFFFFFFFFFFFFFFFFFFFFFFFFF AND SWAP1 POP PUSH0 DUP3 DUP3 PUSH2 0x6DD SWAP2 SWAP1 PUSH2 0xD4D JUMP JUMPDEST SWAP1 POP DUP1 DUP5 PUSH0 ADD PUSH0 PUSH2 0x100 EXP DUP2 SLOAD DUP2 PUSH16 0xFFFFFFFFFFFFFFFFFFFFFFFFFFFFFFFF MUL NOT AND SWAP1 DUP4 PUSH16 0xFFFFFFFFFFFFFFFFFFFFFFFFFFFFFFFF AND MUL OR SWAP1 SSTORE POP POP POP POP POP JUMP JUMPDEST PUSH0 PUSH32 0x0 PUSH20 0xFFFFFFFFFFFFFFFFFFFFFFFFFFFFFFFFFFFFFFFF AND PUSH4 0x70A08231 ADDRESS PUSH1 0x40 MLOAD DUP3 PUSH4 0xFFFFFFFF AND PUSH1 0xE0 SHL DUP2 MSTORE PUSH1 0x4 ADD PUSH2 0x778 SWAP2 SWAP1 PUSH2 0x899 JUMP JUMPDEST PUSH1 0x20 PUSH1 0x40 MLOAD DUP1 DUP4 SUB DUP2 DUP7 GAS STATICCALL ISZERO DUP1 ISZERO PUSH2 0x793 JUMPI RETURNDATASIZE PUSH0 DUP1 RETURNDATACOPY RETURNDATASIZE PUSH0 REVERT JUMPDEST POP POP POP POP PUSH1 0x40 MLOAD RETURNDATASIZE PUSH1 0x1F NOT PUSH1 0x1F DUP3 ADD AND DUP3 ADD DUP1 PUSH1 0x40 MSTORE POP DUP2 ADD SWAP1 PUSH2 0x7B7 SWAP2 SWAP1 PUSH2 0xE6F JUMP JUMPDEST SWAP1 POP SWAP1 JUMP JUMPDEST PUSH0 PUSH32 0x0 PUSH20 0xFFFFFFFFFFFFFFFFFFFFFFFFFFFFFFFFFFFFFFFF AND PUSH4 0x70A08231 ADDRESS PUSH1 0x40 MLOAD DUP3 PUSH4 0xFFFFFFFF AND PUSH1 0xE0 SHL DUP2 MSTORE PUSH1 0x4 ADD PUSH2 0x816 SWAP2 SWAP1 PUSH2 0x899 JUMP JUMPDEST PUSH1 0x20 PUSH1 0x40 MLOAD DUP1 DUP4 SUB DUP2 DUP7 GAS STATICCALL ISZERO DUP1 ISZERO PUSH2 0x831 JUMPI RETURNDATASIZE PUSH0 DUP1 RETURNDATACOPY RETURNDATASIZE PUSH0 REVERT JUMPDEST POP POP POP POP PUSH1 0x40 MLOAD RETURNDATASIZE PUSH1 0x1F NOT PUSH1 0x1F DUP3 ADD AND DUP3 ADD DUP1 PUSH1 0x40 MSTORE POP DUP2 ADD SWAP1 PUSH2 0x855 SWAP2 SWAP1 PUSH2 0xE6F JUMP JUMPDEST SWAP1 POP SWAP1 JUMP JUMPDEST PUSH0 PUSH20 0xFFFFFFFFFFFFFFFFFFFFFFFFFFFFFFFFFFFFFFFF DUP3 AND SWAP1 POP SWAP2 SWAP1 POP JUMP JUMPDEST PUSH0 PUSH2 0x883 DUP3 PUSH2 0x85A JUMP JUMPDEST SWAP1 POP SWAP2 SWAP1 POP JUMP JUMPDEST PUSH2 0x893 DUP2 PUSH2 0x879 JUMP JUMPDEST DUP3 MSTORE POP POP JUMP JUMPDEST PUSH0 PUSH1 0x20 DUP3 ADD SWAP1 POP PUSH2 0x8AC PUSH0 DUP4 ADD DUP5 PUSH2 0x88A JUMP JUMPDEST SWAP3 SWAP2 POP POP JUMP JUMPDEST PUSH0 PUSH16 0xFFFFFFFFFFFFFFFFFFFFFFFFFFFFFFFF DUP3 AND SWAP1 POP SWAP2 SWAP1 POP JUMP JUMPDEST PUSH2 0x8D6 DUP2 PUSH2 0x8B2 JUMP JUMPDEST DUP3 MSTORE POP POP JUMP JUMPDEST PUSH0 PUSH1 0x20 DUP3 ADD SWAP1 POP PUSH2 0x8EF PUSH0 DUP4 ADD DUP5 PUSH2 0x8CD JUMP JUMPDEST SWAP3 SWAP2 POP POP JUMP JUMPDEST PUSH2 0x8FE DUP2 PUSH2 0x85A JUMP JUMPDEST DUP3 MSTORE POP POP JUMP JUMPDEST PUSH0 DUP2 PUSH1 0x2 SIGNEXTEND SWAP1 POP SWAP2 SWAP1 POP JUMP JUMPDEST PUSH2 0x919 DUP2 PUSH2 0x904 JUMP JUMPDEST DUP3 MSTORE POP POP JUMP JUMPDEST PUSH0 PUSH1 0x40 DUP3 ADD SWAP1 POP PUSH2 0x932 PUSH0 DUP4 ADD DUP6 PUSH2 0x8F5 JUMP JUMPDEST PUSH2 0x93F PUSH1 0x20 DUP4 ADD DUP5 PUSH2 0x910 JUMP JUMPDEST SWAP4 SWAP3 POP POP POP JUMP JUMPDEST PUSH0 DUP1 REVERT JUMPDEST PUSH0 DUP1 REVERT JUMPDEST PUSH2 0x957 DUP2 PUSH2 0x879 JUMP JUMPDEST DUP2 EQ PUSH2 0x961 JUMPI PUSH0 DUP1 REVERT JUMPDEST POP JUMP JUMPDEST PUSH0 DUP2 CALLDATALOAD SWAP1 POP PUSH2 0x972 DUP2 PUSH2 0x94E JUMP JUMPDEST SWAP3 SWAP2 POP POP JUMP JUMPDEST PUSH2 0x981 DUP2 PUSH2 0x904 JUMP JUMPDEST DUP2 EQ PUSH2 0x98B JUMPI PUSH0 DUP1 REVERT JUMPDEST POP JUMP JUMPDEST PUSH0 DUP2 CALLDATALOAD SWAP1 POP PUSH2 0x99C DUP2 PUSH2 0x978 JUMP JUMPDEST SWAP3 SWAP2 POP POP JUMP JUMPDEST PUSH2 0x9AB DUP2 PUSH2 0x8B2 JUMP JUMPDEST DUP2 EQ PUSH2 0x9B5 JUMPI PUSH0 DUP1 REVERT JUMPDEST POP JUMP JUMPDEST PUSH0 DUP2 CALLDATALOAD SWAP1 POP PUSH2 0x9C6 DUP2 PUSH2 0x9A2 JUMP JUMPDEST SWAP3 SWAP2 POP POP JUMP JUMPDEST PUSH0 DUP1 REVERT JUMPDEST PUSH0 DUP1 REVERT JUMPDEST PUSH0 DUP1 REVERT JUMPDEST PUSH0 DUP1 DUP4 PUSH1 0x1F DUP5 ADD SLT PUSH2 0x9ED JUMPI PUSH2 0x9EC PUSH2 0x9CC JUMP JUMPDEST JUMPDEST DUP3 CALLDATALOAD SWAP1 POP PUSH8 0xFFFFFFFFFFFFFFFF DUP2 GT ISZERO PUSH2 0xA0A JUMPI PUSH2 0xA09 PUSH2 0x9D0 JUMP JUMPDEST JUMPDEST PUSH1 0x20 DUP4 ADD SWAP2 POP DUP4 PUSH1 0x1 DUP3 MUL DUP4 ADD GT ISZERO PUSH2 0xA26 JUMPI PUSH2 0xA25 PUSH2 0x9D4 JUMP JUMPDEST JUMPDEST SWAP3 POP SWAP3 SWAP1 POP JUMP JUMPDEST PUSH0 DUP1 PUSH0 DUP1 PUSH0 DUP1 PUSH1 0xA0 DUP8 DUP10 SUB SLT ISZERO PUSH2 0xA47 JUMPI PUSH2 0xA46 PUSH2 0x946 JUMP JUMPDEST JUMPDEST PUSH0 PUSH2 0xA54 DUP10 DUP3 DUP11 ADD PUSH2 0x964 JUMP JUMPDEST SWAP7 POP POP PUSH1 0x20 PUSH2 0xA65 DUP10 DUP3 DUP11 ADD PUSH2 0x98E JUMP JUMPDEST SWAP6 POP POP PUSH1 0x40 PUSH2 0xA76 DUP10 DUP3 DUP11 ADD PUSH2 0x98E JUMP JUMPDEST SWAP5 POP POP PUSH1 0x60 PUSH2 0xA87 DUP10 DUP3 DUP11 ADD PUSH2 0x9B8 JUMP JUMPDEST SWAP4 POP POP PUSH1 0x80 DUP8 ADD CALLDATALOAD PUSH8 0xFFFFFFFFFFFFFFFF DUP2 GT ISZERO PUSH2 0xAA8 JUMPI PUSH2 0xAA7 PUSH2 0x94A JUMP JUMPDEST JUMPDEST PUSH2 0xAB4 DUP10 DUP3 DUP11 ADD PUSH2 0x9D8 JUMP JUMPDEST SWAP3 POP SWAP3 POP POP SWAP3 SWAP6 POP SWAP3 SWAP6 POP SWAP3 SWAP6 JUMP JUMPDEST PUSH0 DUP2 SWAP1 POP SWAP2 SWAP1 POP JUMP JUMPDEST PUSH2 0xAD5 DUP2 PUSH2 0xAC3 JUMP JUMPDEST DUP3 MSTORE POP POP JUMP JUMPDEST PUSH0 PUSH1 0x40 DUP3 ADD SWAP1 POP PUSH2 0xAEE PUSH0 DUP4 ADD DUP6 PUSH2 0xACC JUMP JUMPDEST PUSH2 0xAFB PUSH1 0x20 DUP4 ADD DUP5 PUSH2 0xACC JUMP JUMPDEST SWAP4 SWAP3 POP POP POP JUMP JUMPDEST PUSH0 DUP2 SWAP1 POP SWAP2 SWAP1 POP JUMP JUMPDEST PUSH2 0xB14 DUP2 PUSH2 0xB02 JUMP JUMPDEST DUP2 EQ PUSH2 0xB1E JUMPI PUSH0 DUP1 REVERT JUMPDEST POP JUMP JUMPDEST PUSH0 DUP2 CALLDATALOAD SWAP1 POP PUSH2 0xB2F DUP2 PUSH2 0xB0B JUMP JUMPDEST SWAP3 SWAP2 POP POP JUMP JUMPDEST PUSH0 PUSH1 0x20 DUP3 DUP5 SUB SLT ISZERO PUSH2 0xB4A JUMPI PUSH2 0xB49 PUSH2 0x946 JUMP JUMPDEST JUMPDEST PUSH0 PUSH2 0xB57 DUP5 DUP3 DUP6 ADD PUSH2 0xB21 JUMP JUMPDEST SWAP2 POP POP SWAP3 SWAP2 POP POP JUMP JUMPDEST PUSH0 PUSH1 0x20 DUP3 DUP5 SUB SLT ISZERO PUSH2 0xB75 JUMPI PUSH2 0xB74 PUSH2 0x946 JUMP JUMPDEST JUMPDEST PUSH0 PUSH2 0xB82 DUP5 DUP3 DUP6 ADD PUSH2 0x98E JUMP JUMPDEST SWAP2 POP POP SWAP3 SWAP2 POP POP JUMP JUMPDEST PUSH0 DUP2 ISZERO ISZERO SWAP1 POP SWAP2 SWAP1 POP JUMP JUMPDEST PUSH2 0xB9F DUP2 PUSH2 0xB8B JUMP JUMPDEST DUP3 MSTORE POP POP JUMP JUMPDEST PUSH0 PUSH1 0x40 DUP3 ADD SWAP1 POP PUSH2 0xBB8 PUSH0 DUP4 ADD DUP6 PUSH2 0xB96 JUMP JUMPDEST PUSH2 0xBC5 PUSH1 0x20 DUP4 ADD DUP5 PUSH2 0x8CD JUMP JUMPDEST SWAP4 SWAP3 POP POP POP JUMP JUMPDEST PUSH32 0x4E487B7100000000000000000000000000000000000000000000000000000000 PUSH0 MSTORE PUSH1 0x11 PUSH1 0x4 MSTORE PUSH1 0x24 PUSH0 REVERT JUMPDEST PUSH0 PUSH2 0xC03 DUP3 PUSH2 0x904 JUMP JUMPDEST SWAP2 POP PUSH32 0xFFFFFFFFFFFFFFFFFFFFFFFFFFFFFFFFFFFFFFFFFFFFFFFFFFFFFFFFFF800000 DUP3 SUB PUSH2 0xC35 JUMPI PUSH2 0xC34 PUSH2 0xBCC JUMP JUMPDEST JUMPDEST DUP2 PUSH0 SUB SWAP1 POP SWAP2 SWAP1 POP JUMP JUMPDEST PUSH0 DUP3 DUP3 MSTORE PUSH1 0x20 DUP3 ADD SWAP1 POP SWAP3 SWAP2 POP POP JUMP JUMPDEST DUP3 DUP2 DUP4 CALLDATACOPY PUSH0 DUP4 DUP4 ADD MSTORE POP POP POP JUMP JUMPDEST PUSH0 PUSH1 0x1F NOT PUSH1 0x1F DUP4 ADD AND SWAP1 POP SWAP2 SWAP1 POP JUMP JUMPDEST PUSH0 PUSH2 0xC78 DUP4 DUP6 PUSH2 0xC3F JUMP JUMPDEST SWAP4 POP PUSH2 0xC85 DUP4 DUP6 DUP5 PUSH2 0xC4F JUMP JUMPDEST PUSH2 0xC8E DUP4 PUSH2 0xC5D JUMP JUMPDEST DUP5 ADD SWAP1 POP SWAP4 SWAP3 POP POP POP JUMP JUMPDEST PUSH0 PUSH1 0x60 DUP3 ADD SWAP1 POP PUSH2 0xCAC PUSH0 DUP4 ADD DUP8 PUSH2 0xACC JUMP JUMPDEST PUSH2 0xCB9 PUSH1 0x20 DUP4 ADD DUP7 PUSH2 0xACC JUMP JUMPDEST DUP2 DUP2 SUB PUSH1 0x40 DUP4 ADD MSTORE PUSH2 0xCCC DUP2 DUP5 DUP7 PUSH2 0xC6D JUMP JUMPDEST SWAP1 POP SWAP6 SWAP5 POP POP POP POP POP JUMP JUMPDEST PUSH0 PUSH2 0xCE1 DUP3 PUSH2 0xAC3 JUMP JUMPDEST SWAP2 POP PUSH2 0xCEC DUP4 PUSH2 0xAC3 JUMP JUMPDEST SWAP3 POP DUP3 DUP3 ADD SWAP1 POP DUP1 DUP3 GT ISZERO PUSH2 0xD04 JUMPI PUSH2 0xD03 PUSH2 0xBCC JUMP JUMPDEST JUMPDEST SWAP3 SWAP2 POP POP JUMP JUMPDEST PUSH0 PUSH1 0x80 DUP3 ADD SWAP1 POP PUSH2 0xD1D PUSH0 DUP4 ADD DUP8 PUSH2 0x88A JUMP JUMPDEST PUSH2 0xD2A PUSH1 0x20 DUP4 ADD DUP7 PUSH2 0x8CD JUMP JUMPDEST PUSH2 0xD37 PUSH1 0x40 DUP4 ADD DUP6 PUSH2 0xACC JUMP JUMPDEST PUSH2 0xD44 PUSH1 0x60 DUP4 ADD DUP5 PUSH2 0xACC JUMP JUMPDEST SWAP6 SWAP5 POP POP POP POP POP JUMP JUMPDEST PUSH0 PUSH2 0xD57 DUP3 PUSH2 0x8B2 JUMP JUMPDEST SWAP2 POP PUSH2 0xD62 DUP4 PUSH2 0x8B2 JUMP JUMPDEST SWAP3 POP DUP3 DUP3 ADD SWAP1 POP PUSH16 0xFFFFFFFFFFFFFFFFFFFFFFFFFFFFFFFF DUP2 GT ISZERO PUSH2 0xD8A JUMPI PUSH2 0xD89 PUSH2 0xBCC JUMP JUMPDEST JUMPDEST SWAP3 SWAP2 POP POP JUMP JUMPDEST PUSH0 DUP2 PUSH1 0x60 SHL SWAP1 POP SWAP2 SWAP1 POP JUMP JUMPDEST PUSH0 PUSH2 0xDA6 DUP3 PUSH2 0xD90 JUMP JUMPDEST SWAP1 POP SWAP2 SWAP1 POP JUMP JUMPDEST PUSH0 PUSH2 0xDB7 DUP3 PUSH2 0xD9C JUMP JUMPDEST SWAP1 POP SWAP2 SWAP1 POP JUMP JUMPDEST PUSH2 0xDCF PUSH2 0xDCA DUP3 PUSH2 0x879 JUMP JUMPDEST PUSH2 0xDAD JUMP JUMPDEST DUP3 MSTORE POP POP JUMP JUMPDEST PUSH0 DUP2 PUSH1 0xE8 SHL SWAP1 POP SWAP2 SWAP1 POP JUMP JUMPDEST PUSH0 PUSH2 0xDEB DUP3 PUSH2 0xDD5 JUMP JUMPDEST SWAP1 POP SWAP2 SWAP1 POP JUMP JUMPDEST PUSH2 0xE03 PUSH2 0xDFE DUP3 PUSH2 0x904 JUMP JUMPDEST PUSH2 0xDE1 JUMP JUMPDEST DUP3 MSTORE POP POP JUMP JUMPDEST PUSH0 PUSH2 0xE14 DUP3 DUP7 PUSH2 0xDBE JUMP JUMPDEST PUSH1 0x14 DUP3 ADD SWAP2 POP PUSH2 0xE24 DUP3 DUP6 PUSH2 0xDF2 JUMP JUMPDEST PUSH1 0x3 DUP3 ADD SWAP2 POP PUSH2 0xE34 DUP3 DUP5 PUSH2 0xDF2 JUMP JUMPDEST PUSH1 0x3 DUP3 ADD SWAP2 POP DUP2 SWAP1 POP SWAP5 SWAP4 POP POP POP POP JUMP JUMPDEST PUSH2 0xE4E DUP2 PUSH2 0xAC3 JUMP JUMPDEST DUP2 EQ PUSH2 0xE58 JUMPI PUSH0 DUP1 REVERT JUMPDEST POP JUMP JUMPDEST PUSH0 DUP2 MLOAD SWAP1 POP PUSH2 0xE69 DUP2 PUSH2 0xE45 JUMP JUMPDEST SWAP3 SWAP2 POP POP JUMP JUMPDEST PUSH0 PUSH1 0x20 DUP3 DUP5 SUB SLT ISZERO PUSH2 0xE84 JUMPI PUSH2 0xE83 PUSH2 0x946 JUMP JUMPDEST JUMPDEST PUSH0 PUSH2 0xE91 DUP5 DUP3 DUP6 ADD PUSH2 0xE5B JUMP JUMPDEST SWAP2 POP POP SWAP3 SWAP2 POP POP JUMP INVALID LOG2 PUSH5 0x6970667358 0x22 SLT KECCAK256 0x2B MSTORE EXTCODECOPY KECCAK256 CREATE2 0xB3 PUSH30 0x297B005F1DC6CB9B7244585E01534F1FCA68DC12D7C5A1F70E64736F6C63 NUMBER STOP ADDMOD BYTE STOP CALLER "
				},
				"gasEstimates": {
					"creation": {
						"codeDepositCost": "758400",
						"executionCost": "infinite",
						"totalCost": "infinite"
					},
					"external": {
						"liquidity()": "2489",
						"mint(address,int24,int24,uint128,bytes)": "infinite",
						"positions(bytes32)": "2830",
						"slot0()": "4829",
						"ticks(int24)": "5184",
						"token0()": "infinite",
						"token1()": "infinite"
					},
					"internal": {
						"balance0()": "infinite",
						"balance1()": "infinite"
					}
				},
				"methodIdentifiers": {
					"liquidity()": "1a686502",
					"mint(address,int24,int24,uint128,bytes)": "3c8a7d8d",
					"positions(bytes32)": "514ea4bf",
					"slot0()": "3850c7bd",
					"ticks(int24)": "f30dba93",
					"token0()": "0dfe1681",
					"token1()": "d21220a7"
				}
			},
			"storageLayout": {
				"storage": [
					{
						"astId": 178,
						"contract": "contracts/UniswapV3Pool.sol:UniswapV3Pool",
						"label": "slot0",
						"offset": 0,
						"slot": "0",
						"type": "t_struct(Slot0)168_storage"
					},
					{
						"astId": 180,
						"contract": "contracts/UniswapV3Pool.sol:UniswapV3Pool",
						"label": "liquidity",
						"offset": 0,
						"slot": "1",
						"type": "t_uint128"
					},
					{
						"astId": 185,
						"contract": "contracts/UniswapV3Pool.sol:UniswapV3Pool",
						"label": "ticks",
						"offset": 0,
						"slot": "2",
						"type": "t_mapping(t_int24,t_struct(Info)469_storage)"
					},
					{
						"astId": 190,
						"contract": "contracts/UniswapV3Pool.sol:UniswapV3Pool",
						"label": "positions",
						"offset": 0,
						"slot": "3",
						"type": "t_mapping(t_bytes32,t_struct(Info)404_storage)"
					}
				],
				"types": {
					"t_bool": {
						"encoding": "inplace",
						"label": "bool",
						"numberOfBytes": "1"
					},
					"t_bytes32": {
						"encoding": "inplace",
						"label": "bytes32",
						"numberOfBytes": "32"
					},
					"t_int24": {
						"encoding": "inplace",
						"label": "int24",
						"numberOfBytes": "3"
					},
					"t_mapping(t_bytes32,t_struct(Info)404_storage)": {
						"encoding": "mapping",
						"key": "t_bytes32",
						"label": "mapping(bytes32 => struct Position.Info)",
						"numberOfBytes": "32",
						"value": "t_struct(Info)404_storage"
					},
					"t_mapping(t_int24,t_struct(Info)469_storage)": {
						"encoding": "mapping",
						"key": "t_int24",
						"label": "mapping(int24 => struct Tick.Info)",
						"numberOfBytes": "32",
						"value": "t_struct(Info)469_storage"
					},
					"t_struct(Info)404_storage": {
						"encoding": "inplace",
						"label": "struct Position.Info",
						"members": [
							{
								"astId": 403,
								"contract": "contracts/UniswapV3Pool.sol:UniswapV3Pool",
								"label": "liquidity",
								"offset": 0,
								"slot": "0",
								"type": "t_uint128"
							}
						],
						"numberOfBytes": "32"
					},
					"t_struct(Info)469_storage": {
						"encoding": "inplace",
						"label": "struct Tick.Info",
						"members": [
							{
								"astId": 466,
								"contract": "contracts/UniswapV3Pool.sol:UniswapV3Pool",
								"label": "initialized",
								"offset": 0,
								"slot": "0",
								"type": "t_bool"
							},
							{
								"astId": 468,
								"contract": "contracts/UniswapV3Pool.sol:UniswapV3Pool",
								"label": "liquidity",
								"offset": 1,
								"slot": "0",
								"type": "t_uint128"
							}
						],
						"numberOfBytes": "32"
					},
					"t_struct(Slot0)168_storage": {
						"encoding": "inplace",
						"label": "struct UniswapV3Pool.Slot0",
						"members": [
							{
								"astId": 165,
								"contract": "contracts/UniswapV3Pool.sol:UniswapV3Pool",
								"label": "sqrtPriceX96",
								"offset": 0,
								"slot": "0",
								"type": "t_uint160"
							},
							{
								"astId": 167,
								"contract": "contracts/UniswapV3Pool.sol:UniswapV3Pool",
								"label": "tick",
								"offset": 20,
								"slot": "0",
								"type": "t_int24"
							}
						],
						"numberOfBytes": "32"
					},
					"t_uint128": {
						"encoding": "inplace",
						"label": "uint128",
						"numberOfBytes": "16"
					},
					"t_uint160": {
						"encoding": "inplace",
						"label": "uint160",
						"numberOfBytes": "20"
					}
				}
			},
			"userdoc": {
				"kind": "user",
				"methods": {},
				"version": 1
			}
		}
	}
}